:020000040800F2
:10000000B808002069010008F1040008ED040008A8
:10001000EF040008B30200088F070008000000008A
:10002000000000000000000000000000E1050008E2
:10003000B50200080000000095050008E30500086F
:100040008301000883010008830100088301000880
:100050008301000883010008830100088301000870
:1000600000000000830100088301000883010008EC
:1000700083010008830100088301000800000000DC
:1000800083010008830100080000000083010008CC
:100090008301000883010008830100088301000830
:1000A0008301000883010008830100088301000820
:1000B00083010008000000000000000000000000B4
:1000C00083010008000000008301000800F002F82E
:1000D00000F03AF80AA090E8000C82448344AAF1A8
:1000E0000107DA4501D100F02FF8AFF2090EBAE8A6
:1000F0000F0013F0010F18BFFB1A43F0010318475C
:10010000980D0000B80D0000103A24BF78C878C1DF
:10011000FAD8520724BF30C830C144BF04680C600D
:10012000704700000023002400250026103A28BF55
:1001300078C1FBD8520728BF30C148BF0B60704759
:100140001FB51FBD10B510BD00F07AF81146FFF7BE
:10015000F7FF00F0D5FC00F098F803B4FFF7F2FFCA
:1001600003BC00F09FF80000094880470948004799
:10017000FEE7FEE7FEE7FEE7FEE7FEE7FEE7FEE757
:10018000FEE7FEE704480549054A064B70470000B4
:10019000E5050008CD000008B8020020B8080020DE
:1001A000B8040020B80400204FF000020429C0F079
:1001B000128010F0030C00F01B80CCF1040CBCF199
:1001C000020F18BF00F8012BA8BF20F8022BA1EBEB
:1001D0000C0100F00DB85FEAC17C24BF00F8012BD0
:1001E00000F8012B48BF00F8012B70474FF00002C8
:1001F00000B5134694469646203922BFA0E80C501D
:10020000A0E80C50B1F12001BFF4F7AF090728BFF7
:10021000A0E80C5048BF0CC05DF804EB890028BF73
:1002200040F8042B08BF704748BF20F8022B11F09C
:10023000804F18BF00F8012B704770477047704718
:10024000754600F02BF8AE4605006946534620F08F
:100250000700854618B020B5FFF794FFBDE82040A1
:100260004FF000064FF000074FF000084FF0000B72
:10027000AC46ACE8C009ACE8C009ACE8C009ACE8E1
:10028000C00921F007018D46704710B50446AFF351
:1002900000802046BDE81040FFF75FBF0048704770
:1002A0001800002001491820ABBEFEE7260002001E
:1002B0007047FEE77047000028490860704700BF9C
:1002C000B0B504463A4800212044B1EB103F14D1A8
:1002D00000F01BF9042811D1364D286840F00200C7
:1002E00028606C60286840F04000286000F00DF93C
:1002F000296821F00201296000E004202E496FF0F6
:100300007842096802EB8121A14213D300F03AF947
:1003100004280FD1274D286840F0020028606C6047
:10032000286840F04000286000F02CF9296821F08E
:1003300002012960B0BD00BF08480168C9071CBFA1
:10034000012070470168490744BF022070470068D8
:10035000C0064FF0030058BF042070470C20024035
:10036000144800F0E0B800BF7CB50C4610490546C3
:10037000002001902944B0EB113F09D100F0CFF8E3
:10038000042806D10B4E00F0F4F800F0DBF800E092
:100390000420094900F0DFF808D300F0F7F804283A
:1003A00004D1044E00F0E5F800F0CCF87CBD00BFAD
:1003B000001C00E010200240E0F7FF1F0248034944
:1003C0000160034901607047042002402301674532
:1003D000AB89EFCD10B50446FFF7AEFF24B1C1B233
:1003E000012901D1013CF7E7002C08BF0520C0B26C
:1003F00010BD10B50446FFF79FFF24B1C1B201291B
:1004000001D1013CF7E7002C08BF0520C0B210BDA8
:100410002DE9F04F91F803904FF0030EB9F1040F5E
:1004200024BF4FF0000981F80390A9F1010B91F866
:1004300005A0BAF1030F24BF4FF0000A81F805A010
:1004400091F804C0BCF1020F24BF4FF0000C81F8FA
:1004500004C091F80280A8F10102022A24BF4FF0E3
:10046000020881F802800988002701240025102D48
:1004700008BFBDE8F08F04FA05F20A4233D0BBF1A1
:10048000010F1DD8838F934383870EFA07F3B8F1CA
:10049000010F866826EA0303836005D8866808FA98
:1004A00007F33343836002E0838F1343838783889A
:1004B000D2431A4082800CFA05F283881A43828064
:1004C00003680EFA07F29343036009FA07F306681C
:1004D00033430360C36823EA0202C2600AFA07F2E8
:1004E000C3681A43C26002370135C0E7FEE7FEE782
:1004F000704704214FF0904401600121206861F3AE
:1005000005102060C12000F0AFBC4FF08050FFF715
:1005100070BF2068002120F03000206070474FF449
:100520007040FFF766BF016841F0800101607047CD
:1005300004214FF0904401600121206861F305100F
:1005400020607047316821F0010131607047B0814F
:10055000204600F01DB96FF07842096802EB812156
:10056000A94270474FF4FA76016821F0300101602A
:100570007047306840F0010030604FF470402C60EC
:10058000FFF737BF4FF08050FFF724BF4FF47040A4
:10059000FFF720BF70470000044A002911680CBF14
:1005A00021EA000008431060704700BF14100240A9
:1005B000044A002911680CBF21EA000008431060BA
:1005C000704700BF1C100240044901280A6822F04D
:1005D000300208BF30320A60704700BF541002403A
:1005E000704770471CB53A4C3A493D4A206840F084
:1005F000010020606068084037496060206808405A
:100600002060206820F48020206034486168014028
:100610006160216B114021634FF41F01A160002133
:1006200001910091216841F0010121604FF6FF71B5
:10063000226802F002020092019A01320192009AAD
:1006400012B9019A8A42F3D12168890754BF002167
:10065000012100910099012934D1224940F253121D
:1006600000F10C600A6061686160616821F46051AA
:10067000616061686160616821F4E0616160616886
:1006800061606168084018496060606808436060A4
:10069000206840F08070206020688001FCD5012037
:1006A000FFF792FF606820F003006060606840F030
:1006B00002006060606800F00C000828FAD1002099
:1006C000FFF782FF09484FF0006101601CBD00BFC9
:1006D000001002400C00FFE8FFFFF6FEFFFF0017CE
:1006E00000FFFEFE002002400000342008ED00E084
:1006F000002918BF0121028822F001021144018063
:1007000070470000B0B5184C038804F58E32904253
:100710000ED0F74DA8420BD0144DA84208D0144D6E
:10072000A84205D0134DA84202D0134DA84203D1D0
:100730008D8823F070032B43A04203D08C8923F4CF
:1007400040732343038090428B68C3620B88038508
:1007500005D0084A904202D0074A904201D1897BD5
:10076000018601218182B0BD0010004000200040C0
:1007700000400140004801400044014000214FF684
:10078000FF72818101808173C0E901127047FEE729
:10079000B0B54218445C557800F00EFAD64801799D
:1007A0004079684061400843B0FA80F04009B0BD2C
:1007B00070B54FF09040204CFFF7D4FE0121206827
:1007C00061F30510642120601C4801604FF4FA7049
:1007D00000F06AF91A4D56B1A088400702D4288863
:1007E000013028800A2000F05FF9013EF3E72888F5
:1007F00000B34FF09040FFF7B5FE002001212880A4
:10080000206861F3051020604FF4FA7000F04CF995
:1008100056B1A088400702D42888013028800A20D9
:1008200000F042F9013EF3E7288818B1BDE87040B6
:1008300000F042B970BD00BF0C0000483404004015
:10084000B00000202DE9FC4705AFEB4EF078D8B1A1
:10085000914C71892046B181FFF79AFF002800F082
:1008600009818E4D4FF480712846FFF7BFFCB08997
:1008700028B114F8011B013805F8011BF8E700F056
:1008800089FA0020F07025E0834C217C20787D29B6
:10089000706106D1207A0D281CD1607A422815D0CB
:1008A00018E0217D7D2905D1217B0D2902D1617BB5
:1008B00042290BD094F828107D2910D194F82010EB
:1008C0000D290CD194F82110422908D100F03AFAF0
:1008D00000202075A7F10C04A546BDE8F0876178DB
:1008E000A278E37801431143194319D0411E03292B
:1008F00025D9FD283AD0FE2848D0FF2812D1EA4C4D
:1009000004200421FFF723FE002800F0B38000201C
:1009100030816088000400BA00F1006070625BE022
:10092000652030815E48FFF7E4FD206820F030004C
:10093000206030890130308100203062CAE7DFE872
:1009400001F0023F52A002200221B081D648FFF7F9
:100950001FFF002800F08E80726A5248824240F2E7
:10096000938071894D4800F0A3F935E002200221FF
:10097000B081CD48FFF70CFF00287BD04848FFF737
:10098000B8FD206820F030002060D5E7C64C042078
:100990000421FFF7DCFD00286CD001204FF09042CD
:1009A000E178F070A0781368012823F03003136019
:1009B0004FF48072F28108BF4FF480717181BBE700
:1009C00002200221B081B848FFF7E2FE002851D092
:1009D000706A3449884257D9A7F10C04A546BDE88E
:1009E000F04700F0D7B9B04C02200221FFF7AFFD6D
:1009F00000283FD03069042164784FF09049EA46DE
:100A000001303061EE48016080200121F081002C2E
:100A1000D9F8000061F30510C9F8000008BF4FF4D1
:100A2000807404F10A0020F00700ADEB0005AD462C
:100A300004F1030828464146FFF7B6FB716A2846D1
:100A4000224600F0DBF82846214600F0B5F8B088D1
:100A500030212853281981702846414600F08AF930
:100A6000D9F8000020F03000C9F800000020306202
:100A7000D5462FE7A7F10C04A546BDE8F04700F0E6
:100A8000A1B9012070704DE7A7F10C04A546BDE89F
:100A9000F04700F08BB900BFB4010020B400002083
:100AA00018000048FF0F0008EC4900220A600A689D
:100AB0008242FCD3704700BFB0B53D4801210D4DC7
:100AC000E74CC16372B66968A1610C4909780129D4
:100AD0001EBF00202081B0BD0021FFF709FEA069E4
:100AE000E061286880F30888E069BDE8B04000470D
:100AF000000400400010000878000020007C00087E
:100B000082B0DFF86C8202200121C8F804000320C3
:100B1000C8F804000220FFF74BFDD14E06F128056E
:100B20002846FFF72BFE7720214C002729463085E9
:100B30004FF6FF70B786C6E90B702046FFF7E2FD5F
:100B400020460121FFF7D4FD4FF480200121FFF75B
:100B500023FD4FF400300121FFF71EFD154D042049
:100B60006946CDF80270ADF8000005F57D70FFF71D
:100B70004FFCFFF71DFE652060634FF09040016859
:100B800021F030010160286820F0300028606620E4
:100B90006725606398F8000088F80B00656300F033
:100BA00037F830896528F9D3FFF786FFF6E700BFED
:100BB000000400400C000048F0B50E4A0024002557
:100BC00000238B4212D0C55C0026082E0AD2C4F343
:100BD0004E076C40E40718BF5740ECB20136650879
:100BE0003C46F2E7A5B201332D0AEAE79C4845717D
:100BF0000471F0BD01A0FFFF7800002010B50023B4
:100C00009342A8BF10BDCC5CC4540133F8E7000088
:100C10002DE9F041234D0120914EDFF88C804FF4F7
:100C2000817128600020307030614046FFF7DEFAA5
:100C30001E4F4F4C7FB300F0D1F860680130606008
:100C400060682860F07868B1718930690231884243
:100C50001AD0B27808EB07010130306181F8022127
:100C600028600AE055F81C0CFB2810D2B17808EB7C
:100C7000070080F80211781C01D00137DAE73089CB
:100C8000143030810120EBE71920286003E00820B0
:100C900028600020306102202860BDE8F041FFF7A5
:100CA000D1BD00BF40040040B4010020FEFEFFFFA4
:100CB0002DE9FF4707AF06460420904691FBF0F46C
:100CC000072000EB840020F00700ADEB0005AD46E7
:100CD00028462146FFF78AFA0020A04205DA56F896
:100CE000201045F820100130F7E747F8104CFFF7C7
:100CF00065FB5FEA885002D14046FFF7E1FA002029
:100D000047F8140C47F8180C57F8180C57F8101C33
:100D1000884210D257F8180C57F8181C55F82110B3
:100D200008EB8000FFF720FB3420FFF7C5FA57F8E7
:100D3000180C0130E6E7A7F10C04A546BDE8F04722
:100D4000FFF70EBB10B5534804214FF090440160EB
:100D50000121206861F30510092120600448083052
:100D600000F008F8FFF7D5FB3D48016210BD00BF59
:100D70000000002070B50C4605460026A642A8BF1C
:100D800070BDA85D00F070F83420FFF78DFE0136CD
:100D9000F4E7000010B53F48FFF7CAFB302000F031
:100DA00063F8FFF7B6FB2E48016210BD10B5394855
:100DB000FFF79FFBFFF7ADFB2948016210BD00BFA5
:100DC0001800004810B53348FFF7B2FBC22000F00E
:100DD0004BF8FFF79EFB2248016210BDF8B51F4C8F
:100DE00068201F4D1F4E20610020A8704FF6DD7057
:100DF0003188490707D421688142F9D369202061ED
:100E000065202881F8BD6A2020612878318849074B
:100E100007D52168FB29F9D30028F7D0402060616D
:100E2000F8BD6B2060611A20FFF73EFE0027082FF7
:100E30000BD03420FFF738FEA8783188C1F3800149
:100E4000B94001370843A870F1E71A20FFF72CFEDC
:100E500001202870A878A871A061F8BD2404004082
:100E60007800002010000048F8B50A4D042604461A
:100E700000272E823420FFF717FE072F06D8E00741
:100E80000CBF2E822E6064080137F3E7042028602F
:100E9000F8BD00BF18000048B80E00080000002090
:100EA0001800000008010008D00E000818000020FB
:100EB000A00800002401000802000000010000005A
:100EC000343731001F06060130000000000000002A
:04000005080000CD22
:00000001FF
