:020000040800F2
:10000000A80800200D0200085F0300085B03000839
:100010005D030008570300081504000800000000F5
:10002000000000000000000000000000A303000822
:100030005903000800000000A1030008A503000800
:1000400027020008270200082702000827020008EC
:1000500027020008270200082702000827020008DC
:1000600027020008270200082702000827020008CC
:1000700027020008270200082702000827020008BC
:1000800027020008270200082702000827020008AC
:10009000270200082702000827020008270200089C
:1000A000270200082702000827020008270200088C
:1000B000270200082702000827020008270200087C
:1000C000270200082702000827020008270200086C
:1000D000270200082702000827020008270200085C
:1000E000270200082702000827020008000000007D
:1000F0000000000000000000000000000000000000
:10010000000000002702000827020008000000008D
:10011000270200082702000800000000000000007D
:10012000270200082702000827020008270200080B
:1001300000000000000000000000000000000000BF
:10014000000000000000000000000000270200087E
:10015000000000000000000027020008270200083D
:10016000000000000000000000000000270200085E
:1001700000F002F800F03AF80AA090E8000C82447F
:100180008344AAF10107DA4501D100F02FF8AFF25C
:10019000090EBAE80F0013F0010F18BFFB1A43F065
:1001A00001031847600D0000800D0000103A24BFC5
:1001B00078C878C1FAD8520724BF30C830C144BFCC
:1001C00004680C607047000000230024002500260E
:1001D000103A28BF78C1FBD8520728BF30C148BFAA
:1001E0000B6070471FB51FBD10B510BD00F07AF849
:1001F0001146FFF7F7FF00F045FC00F098F803B454
:10020000FFF7F2FF03BC00F09FF8000009488047A9
:1002100009480047FEE7FEE7FEE7FEE7FEE7FEE7E8
:10022000FEE7FEE7FEE7FEE704480549054A064B00
:1002300070470000A903000871010008A80200200F
:10024000A8080020A8040020A80400204FF0000205
:100250000429C0F0128010F0030C00F01B80CCF1D8
:10026000040CBCF1020F18BF00F8012BA8BF20F846
:10027000022BA1EB0C0100F00DB85FEAC17C24BF9A
:1002800000F8012B00F8012B48BF00F8012B704744
:100290004FF0000200B5134694469646203922BF1F
:1002A000A0E80C50A0E80C50B1F12001BFF4F7AF6A
:1002B000090728BFA0E80C5048BF0CC05DF804EB4C
:1002C000890028BF40F8042B08BF704748BF20F8BA
:1002D000022B11F0804F18BF00F8012B70477047B8
:1002E00070477047754600F02BF8AE46050069462A
:1002F000534620F00700854618B020B5FFF794FF5D
:10030000BDE820404FF000064FF000074FF0000816
:100310004FF0000BAC46ACE8C009ACE8C009ACE853
:10032000C009ACE8C00921F007018D46704710B53F
:100330000446AFF300802046BDE81040FFF75FBFE2
:10034000004870471800002001491820ABBEFEE7A6
:10035000260002007047FEE77047FEE7FEE77047A1
:100360004FF4FA704FF4FA7600F086BA206840F045
:10037000400020604FF0804000F0A6BAB0812046D7
:1003800000F04AB84FF4801000F09EBA216821F0C6
:100390000101216010BD226842F001022260704715
:1003A00070477047704700009A48C16941F080511A
:1003B000C16116490A7842F004020A70C16921F04D
:1003C0008051C161016841F0010101600168890744
:1003D000FCD5416821F003014160416811F00C0F28
:1003E000FBD101688C4A114001600021416041F657
:1003F0001071C1624FF4801101634FF41F018160DD
:1004000003484FF000610160704700BF507000402A
:1004100008ED00E0FEE70000B0B54218445C5578F6
:1004200000F0B4FB0448017940796840614008431A
:10043000B0FA80F04009B0BD7800002070B500200F
:100440001821102200F0CEFAFFF78AFF154C164D46
:1004500056B12068C00602D42888013028800A20BE
:1004600000F00AFA013EF3E72888D0B10020042109
:1004700010222880002000F0B5FAFFF771FF56B176
:100480002068C00602D42888013028800A2000F0A5
:10049000F3F9013EF3E7288818B1BDE8704000F099
:1004A000D3BA70BD080C01409C000020614900F0E7
:1004B0000F000A6822F0F00242EA0010086070475C
:1004C0005C4900F007000A6822F4E06242EA00207A
:1004D00008607047574900F007000A6822F460522C
:1004E00042EAC02008607047044901280A6822F0E7
:1004F000300208BF30320A60704700BF541002401B
:10050000042828D8DFE800F00309121C2200414823
:10051000026861F300020260704701F001003D498A
:100520000A6822F4803242EA004007E001F001004C
:1005300038490A6822F0807242EA00600860704719
:100540003448026A61F30002026270473148426A2D
:1005500061F30002426270472E4A010C00F01F0056
:10056000895821FA00F000F00100704700F01F02E6
:100570000123000C9340274A0129815814BF994355
:1005800019438150704700BF2A4A136868B143F489
:10059000803301281360136807BF23F400334FF042
:1005A000007043F40033002002E023F48033002085
:1005B0001360136861F39543C1F30211136013686C
:1005C00061F35E731360916A21F0E0610843906209
:1005D000704700BF0F48016841F0010101600168E8
:1005E0008907FCD5416821F003014160416811F0A1
:1005F0000C0FFBD10168084A1140016000214160E5
:1006000041F61071C1624FF4801101634FF41F0174
:100610008160704700100240FFFFF2FE05490A6842
:1006200060F301020A60704702480068C0F381006D
:10063000704700BF041002402DE9F84F04AF894E07
:10064000F078D8B1884C71892046B181FFF7E4FE7B
:10065000002800F0F580854D4FF480712846FFF7A3
:1006600017FEB08928B114F8011B013805F8011BE9
:10067000F8E700F060FB0020F07028E07A4C20786A
:10068000A17E70617A480160207C7D2806D1207AA5
:100690000D281CD1607A422815D018E0207D7D28D5
:1006A00005D1207B0D2802D1607B42280BD094F825
:1006B00028007D2810D194F820000D280CD194F842
:1006C0002100422808D100F013FB00202075A7F17B
:1006D0000C04A546BDE8F08F6078A178E278084365
:1006E00040EA02017069014310D16520308100F0B9
:1006F0009FFBC12000F07AFB308901303081A7F1E7
:100700000C04A546BDE8F04F00F086BB411E03294E
:1007100016D9FD2829D0FE2835D0FF28E7D1524C24
:1007200004200421FFF72AFE002800F08980002021
:1007300030816088000400BA00F10060306242E05D
:10074000DFE801F00235488502200221B0814648E9
:10075000FFF762FE002873D0326A4648824279D998
:100760007189424800F07AFA2DE002200221B0811E
:100770003D48FFF751FE002862D000F059FBC12030
:1007800000F034FBBBE7384C04200421FFF7F6FDF2
:10079000002855D04FF48070E178F0810120F0708E
:1007A000A078012808BF4FF480717181A7E702206B
:1007B0000221B0812C48FFF72FFE002840D0306A7C
:1007C0002C49884246D9A7F10C04A546BDE8F04F54
:1007D00000F0B1BA244C02200221FFF7CFFD78B31C
:1007E00080206478F08130690130306100F020FBB6
:1007F000002C08BF4FF4807404F10A00E94620F091
:100800000700ADEB0005AD4604F10308284641465C
:10081000FFF71CFD316A2846224600F0D7F928462A
:10082000214600F0B3F9B08830212853281981708F
:100830002846414600F070FA00F0EEFACD4646E751
:10084000A7F10C04A546BDE8F04F00F088BA0120DE
:1008500070704CE7A7F10C04A546BDE8F04F00F01E
:1008600074BA00BF78000020A4010020A00000207E
:1008700034040040FF0F0008034900220A600A68A0
:100880008242FCD3704700BF240400400D49086039
:10089000704700BF2548016841F080010160704742
:1008A00008480168C9071CBF002070470168490754
:1008B00044BF012070470068C0064FF0020058BFD7
:1008C000032070470C20024010B50446FFF7E8FFF4
:1008D0001CB1010601D1013CF8E7002C08BF04203F
:1008E000C0B210BD10B5114C216841F00201216069
:1008F0006060FFF73BFD216821F00201216010BD1F
:100900000248034901600349016070470420024026
:1009100023016745AB89EFCD10B5044CFFF73BFDD4
:100920000160FFF72FFDFFF731BD00BF102002402F
:10093000954A4FF6FF71C0E900127047F0B58B7908
:100940000A88032B0AD05BB94979282913D01829C2
:1009500012BF01F00F01026108210EE000210CE03E
:100960000C79C97903F0080304F0040401F00301D1
:100970002344194401E042610821130616D00023E4
:100980000F240025082D11D022FA05F6F6070AD00B
:10099000076804FA03F627EA0606066001FA03F67A
:1009A00007683E43066004330135EBE7B2F5807F0C
:1009B00017D3120A00230F240025082D11D022FA84
:1009C00005F6F6070AD0476804FA03F627EA060692
:1009D000466001FA03F647683E434660043301353A
:1009E000EBE7F0BDFEB501AF064614460D463846AE
:1009F000FFF79EFF044839468DF80A6001948DF890
:100A00000950FFF79BFFFEBD000C014070B5C0F31D
:100A10000725C0F307424FF0FF3355FAA0F503FA5C
:100A200002F4C5F12005EB40064D2340040EC0B290
:100A300066599040002926EA030318BF0343635117
:100A400070BD00BF000001400C49EFF3108072B68A
:100A5000E3484A6882610A4A1278012A1EBF0021CF
:100A600001817047454A136823F0010313608269CE
:100A7000C261096881F30888C06900470010000856
:100A8000007C000882B0A34D02204FF4AA71686078
:100A90000320686036480160FFF79CFD00200121BB
:100AA000FFF72EFD0120FFF757FD0128FAD10020A6
:100AB0002321FFF769FD02200121FFF721FD192005
:100AC000FFF74AFD0128FAD10020FFF7EFFC0420D0
:100AD000FFF700FD0420FFF7F3FC0120FFF704FD02
:100AE0000220FFF79BFDFFF79FFD0228FBD10020AE
:100AF000FFF7FAFC00F0A6F91E481F4C0121A047A1
:100B00001E4E95200121B0624FF6FF70F0627069B1
:100B100040F001007061306840F00100306018481A
:100B2000A0474FF4C0100121A04716480121FFF74C
:100B30006DFF6C462046FFF7FBFE1020214600901B
:100B40001148019006F58430FFF7F8FEFFF776FCB8
:100B5000002004211022FFF745FF2878A04CE872FE
:100B600000F03EF820896528FAD3FFF76DFFF7E71C
:100B70000020024001001C006D0500080004004038
:100B8000030018000203103000040001F0B50E4A03
:100B90000024002500238B4212D0C55C0026082EBD
:100BA0000AD2C4F34E076C40E40718BF5740ECB2BA
:100BB000013665083C46F2E7A5B201332D0AEAE7A3
:100BC000874845710471F0BD01A0FFFF10B50023F7
:100BD0009342A8BF10BDCC5CC4540133F8E70000B9
:100BE0002DE9F0417E4D1B4C00204FF4817128709F
:100BF00028612046FFF74CFB7A48174E454F804648
:100C000026B300F0B7F8786801307860E87858B11A
:100C1000698928690231884218D0AA78A11901305F
:100C2000286181F802210DE04046D8F80000FB2839
:100C30000AD2A978A01980F80211701C02D1288963
:100C4000143028810136DBE700202861BDE8F0413F
:100C5000FFF7F2BCA4010020FEFEFFFF2DE9FF47D5
:100C600007AF06460420904691FBF0F4072000EB06
:100C7000840020F00700ADEB0005AD462846214674
:100C8000FFF706FB0020A04205DA56F8201045F8D1
:100C900020100130F7E747F8104CFFF731FE5FEA0C
:100CA000885002D14046FFF71DFE002047F8140C83
:100CB00047F8180C57F8180C57F8101C884210D237
:100CC00057F8180C57F8181C55F8211008EB80003D
:100CD000FFF722FE3420FFF7D9FD57F8180C01303A
:100CE000E6E7A7F10C04A546BDE8F047FFF7D2BD43
:100CF00080B5074801880131018000F099F8054866
:100D00000921083000F008F8BDE8804000F084B800
:100D1000A60200200000002070B50C460546002603
:100D2000A642A8BF70BDA85D00F060F83420FFF7B0
:100D3000A3FD0136F4E780B500F07AF8302000F02A
:100D400055F8BDE8804000F067B880B500F070F855
:100D5000C12000F04BF8BDE8804000F05DB880B5E0
:100D600000F066F8C22000F041F8BDE8804000F0D5
:100D700053B8000070B51A4C00201B4D44F6216199
:100D8000A07018482A68D20605D402688A42F9D3AE
:100D90006520208170BD21782A68D20605D50268B9
:100DA000FB2AF9D30029F7D070BD1A20FFF764FDA4
:100DB0000026082E0BD03420FFF75EFDA0782968AE
:100DC000C1F30011B14001360843A070F1E71A20C9
:100DD000FFF752FD01202070A078A07170BD00BF08
:100DE0007800002024040040080C0140F8B5144DA0
:100DF0001026044600276E603420FFF73DFD072FC4
:100E000006D8E0070CBF6E602E6064080137F3E778
:100E100010202860F8BD00BF10B50020042110226A
:100E20000024FFF7DFFD0148046010BDA001002091
:100E3000034810211022016010200421FFF7D2BDC9
:100E4000100C014070B5264D264CFFF7EDFB022833
:100E500008D0D0BB206D800537D5E06A800148BF3F
:100E6000224D32E02068A16AC0F3004000290BD473
:100E700021682268C2F34172C1F383410AB90F2984
:100E800018D11201013216E0A16AA26AA36A164EB5
:100E9000C1F30311C2F3082203F0070318B120685D
:100EA000800358BF2E4601FA03F006FB02F1B1FBA6
:100EB000F0F50AE00222114420B12068800301D439
:100EC0004D4302E0084801FB00F5094809A205600E
:100ED0002168C1F30311515C25FA01F1016070BD75
:100EE00000127A000410024000093D00006CDC0290
:100EF00014000020000000000000000001020304B4
:100F000006070809280F000800000020180000004C
:100F1000AC010008400F00081800002090080000F5
:100F2000C8010008000000001400000001000000DB
:100F3000343731001F0606013000000000127A002D
:100F4000FFFFFFFFFFFFFFFFFFFFFFFFFFFFFFFFB1
:100F5000FFFFFFFFFFFFFFFFFFFFFFFFFFFFFFFFA1
:100F6000FFFFFFFFFFFFFFFFFFFFFFFFFFFFFFFF91
:100F7000FFFFFFFFFFFFFFFFFFFFFFFFFFFFFFFF81
:100F8000FFFFFFFFFFFFFFFFFFFFFFFFFFFFFFFF71
:100F9000FFFFFFFFFFFFFFFFFFFFFFFFFFFFFFFF61
:100FA000FFFFFFFFFFFFFFFFFFFFFFFFFFFFFFFF51
:100FB000FFFFFFFFFFFFFFFFFFFFFFFFFFFFFFFF41
:100FC000FFFFFFFFFFFFFFFFFFFFFFFFFFFFFFFF31
:100FD000FFFFFFFFFFFFFFFFFFFFFFFFFFFFFFFF21
:100FE000FFFFFFFFFFFFFFFFFFFFFFFFFFFFFFFF11
:100FF000FFFFFFFFFFFFFFFFFFFFFFFFFFFFFFFF01
:10100000780D002051120008252A0008E529000863
:10101000212A0008AD14000811310008000000006A
:101020000000000000000000000000007D2B000810
:101030008515000800000000292A0008812B0008FF
:101040006B1200086B1200086B1200086B1200088C
:101050006B1200086B1200086B1200086B1200087C
:101060006B1200086B1200086B1200086B1200086C
:101070006B1200086B1200086B1200086B1200085C
:10108000011500086B1200086B1200086B120008B3
:101090006B1200086B1200086B1200086B1200083C
:1010A0001D2E0008312E0008492E00086B12000882
:1010B0006B120008592E00086B1200086B12000812
:1010C0006B1200086B1200086B1200086B1200080C
:1010D0006B1200080D3100086B1200086B1200083B
:1010E0006B1200086B1200086B1200080000000071
:1010F00000000000000000000000000000000000F0
:10110000000000006B1200086B12000800000000D5
:101110006B1200086B1200080000000000000000C5
:101120006B1200086B1200086B1200086B120008AB
:1011300000000000000000000000000000000000AF
:101140000000000000000000000000006B1200081A
:101150000000000000000000B11400086B1200083D
:101160000000000000000000000000006B120008FA
:1011700000F002F800F05CF80AA090E8000C82444D
:101180008344AAF10107DA4501D100F051F8AFF22A
:10119000090EBAE80F0013F0010F18BFFB1A43F055
:1011A0000103184778600000986000000A444FF07F
:1011B000000C10F8013B13F0070408BF10F8014BB6
:1011C0001D1108BF10F8015B641E05D010F8016BFB
:1011D000641E01F8016BF9D113F0080F1EBF10F85F
:1011E000014BAD1C0C1B09D16D1E58BF01F801CB82
:1011F000FAD505E014F8016B01F8016B6D1EF9D505
:101200009142D6D370470000002300240025002619
:10121000103A28BF78C1FBD8520728BF30C148BF59
:101220000B6070471FB505F00DFE1FBD10B510BD5A
:1012300000F060F81146FFF7F5FF03F08BFA00F0BD
:1012400097F803B4FFF7F2FF03BC00F0FDF80000CD
:101250000948804709480047FEE7FEE7FEE7FEE74A
:10126000FEE7FEE7FEE7FEE7FEE7FEE70448054986
:10127000054A064B70470000852B000871110008D5
:1012800078070020780D00207809002078090020D8
:101290004FF0000200B5134694469646203922BF0F
:1012A000A0E80C50A0E80C50B1F12001BFF4F7AF5A
:1012B000090728BFA0E80C5048BF0CC05DF804EB3C
:1012C000890028BF40F8042B08BF704748BF20F8AA
:1012D000022B11F0804F18BF00F8012B70477047A8
:1012E0007047704700487047BC03002000487047B3
:1012F000B80300207546FFF7F9FFAE4605006946C2
:10130000534620F00700854618B020B5FFF7AEFF22
:10131000BDE820404FF000064FF000074FF00008F6
:101320004FF0000BAC46ACE8C009ACE8C009ACE833
:10133000C009ACE8C00921F007018D4670470000E4
:101340001FB584B000200A9C06AB04AA02A9009431
:10135000AFF3008018B1DDE9020108B010BD034809
:10136000204000F00EF800200146F6E70000207C47
:1013700010B50446AFF300802046BDE81040FFF7EB
:1013800060BF10B500F00AF8BDE81040AFF3008070
:10139000002801D000F058B87047000010B50228AE
:1013A00003D0410103D50DA112E0002010BD0101C1
:1013B00001D50FA10CE0C10001D511A108E0810009
:1013C00001D512A104E0400001D513A100E00021E5
:1013D00015A000F03FF8012010BD0000496E7661B5
:1013E0006C6964204F7065726174696F6E000000F3
:1013F000446976696465204279205A65726F0000FD
:101400004F766572666C6F7700000000556E6465FC
:1014100072666C6F77000000496E657861637420B6
:10142000526573756C7400005349474650453A2025
:1014300041726974686D657469632065786365706D
:1014400074696F6E3A20000001491820ABBEFEE7B8
:101450002600020070B505460C460A2000E06D1C0F
:1014600000F011F835B128780028F8D102E0641CAA
:1014700000F009F814B120780028F8D1BDE87040D8
:101480000A20AFF3008008B569468DF800000320FC
:10149000ABBE08BD704700008268002922F4A0029C
:1014A00018BF02F5A002826070470000FEE700004E
:1014B00040F21440C4F201000168090358BF7047AC
:1014C0004FF40021016002F059BF000042F20042D7
:1014D0000123C4F2000203FA00F0002911680CBFD6
:1014E00021EA0000084310607047000042F200410A
:1014F000C4F20001096821FA00F0C0F3803070479F
:1015000010B504244FF48000C4F2020400F02EF859
:1015100001280ED140F2AC40C2F20000007840B188
:1015200040F20440C4F20000018801804FF48000C2
:1015300020604FF4001000F019F8012809D04FF492
:10154000000000F013F8012818BF10BD4FF4801000
:1015500020604FF480102060A06E4FF6FE710840AE
:10156000A066BDE8104004F027BF00000022010F74
:10157000C4F2020261F38A221168084018BF0120F8
:10158000704700007047000042F20C01C4F20201F3
:101590000860704700F1604101F5A841C90A0829B7
:1015A00026D842F20C02C4F202021168C9073FD1E8
:1015B0001168490700F1CC801168C90600F15D810E
:1015C000516841F0020151609060516841F0400162
:1015D00051601168C90740F0BD801168490700F1EA
:1015E000FF801168C9064FF0030158BF042105E2CE
:1015F00004214FF2E072C1F6FF7212686FF0784377
:1016000003EB82228242C0F0CB8142F20C02C4F290
:1016100002021168C90753D11168490744BF02206B
:1016200070471168C90644BF0320704735E100BF09
:101630004FF080531168C90700F00D811168C90788
:1016400000F0D0801168C90700F0D0801168C90788
:1016500000F0D0801168C90700F0D0801168C90778
:1016600000F0D0801168C90700F0D0801168C90768
:1016700000F0D0801168C90700F0D0801168C90758
:1016800000F0D0801168C90700F0D0801168C90748
:1016900000F0D0801168C90700F0D0801168C90738
:1016A00000F0D0801168C90700F0D0801168C90728
:1016B00000F0D080103B4FF00501BBD199E700BF8F
:1016C0004FF080531168C90700F0DB801168C9072B
:1016D00000F08A801168C90700F08A801168C90784
:1016E00000F08A801168C90700F08A801168C90774
:1016F00000F08A801168C90700F08A801168C90764
:1017000000F08A801168C90700F08A801168C90753
:1017100000F08A801168C90700F08A801168C90743
:1017200000F08A801168C90700F08A801168C90733
:1017300000F08A801168C90700F08A801168C90723
:1017400000F09E80103B4FF00501BBD128E100BFA7
:1017500002214EE74FF080531168C90700F03F8126
:101760001168C90700F01E811168C90700F01C81CB
:101770001168C90700F01A811168C90700F01881C3
:101780001168C90700F016811168C90700F01481BB
:101790001168C90700F012811168C90700F01081B3
:1017A0001168C90700F00E811168C90700F00C81AB
:1017B0001168C90700F00A811168C90700F00881A3
:1017C0001168C90700F006811168C90700F004819B
:1017D0001168C90700F00281103BBDD105210DE160
:1017E00002210BE1013B36E0013B4AE0023B32E0E3
:1017F000023B46E0033B2EE0033B42E0043B2AE091
:10180000043B3EE0053B26E0053B3AE0063B22E098
:10181000063B36E0073B1EE0073B32E0083B1AE0A0
:10182000083B2EE0093B16E0093B2AE00A3B12E0A8
:101830000A3B26E00B3B0EE00B3B22E00C3B0AE0B0
:101840000C3B1EE00D3B06E00D3B1AE00E3B02E0B8
:101850000E3B16E00F3B1168490705D41168012BB8
:1018600008D10521C5E600BF0221012B08BF0521D3
:10187000BFE600BFC9067FF5A3AE0321B9E600BFEE
:101880000F3B1168490753D41168012B04BF052091
:101890007047C90644BF03207047516841F00201F8
:1018A00051609060506840F0400050601068C00780
:1018B00008D11068400741D410680321C00658BF02
:1018C000042169E04FF080501168C90755D01168B4
:1018D000C90735D01168C90734D01168C90733D09A
:1018E0001168C90732D01168C90731D01168C9071A
:1018F00030D01168C9072FD01168C9072ED01168E0
:10190000C9072DD01168C9072CD01168C9072BD081
:101910001168C9072AD01168C90729D01168C907F9
:1019200028D01168C90727D01038CDD1052133E060
:101930000220012B08BF0520704700BF02212BE0C9
:1019400001381AE0023818E0033816E0043814E0D1
:10195000053812E0063810E007380EE008380CE0D1
:1019600009380AE00A3808E00B3806E00C3804E0D1
:101970000D3802E00E3800E00F381168490707D42F
:101980001168C9064FF0030158BF042101E000BFF0
:101990000221012808BF0521506820F00200506094
:1019A00008467047013B1AE0023B18E0033B16E093
:1019B000043B14E0053B12E0063B10E0073B0EE061
:1019C000083B0CE0093B0AE00A3B08E00B3B06E061
:1019D0000C3B04E00D3B02E00E3B00E00F3B1168C6
:1019E000490707D41168C9064FF0030158BF042105
:1019F00001E000BF0221012B08BF0521536823F03D
:101A000002035360F5E5000042F21000C4F2020048
:101A1000016841F0800101607047000010B581B09D
:101A200000F1604202F5A842D20A082A4FF00002F3
:101A3000009229D842F20C0EC4F2020EDEF8002009
:101A4000D20723D1DEF80020520700F19F80DEF894
:101A50000020D20600F18D81DEF8042042F0010260
:101A6000CEF804200160DEF80020D20740F090801C
:101A7000DEF80020520700F10B81DEF8002003247D
:101A8000D20658BF0424E2E10424E6E14FF4704C8E
:101A90000524DEF80020D20700F05681DEF8002091
:101AA000D20700F0F780DEF80020D20700F0F680C1
:101AB000DEF80020D20700F0F580DEF80020D20723
:101AC00000F0F480DEF80020D20700F0F380DEF8AA
:101AD0000020D20700F0F280DEF80020D20700F0EC
:101AE000F180DEF80020D20700F0F080DEF8002060
:101AF000D20700F0EF80DEF80020D20700F0EE8081
:101B0000DEF80020D20700F0ED80DEF80020D207DA
:101B100000F0EC80DEF80020D20700F0EB80DEF869
:101B20000020D20700F0EA80DEF80020D20700F0A3
:101B3000E980DEF80020D20700F0E880DEF800201F
:101B4000D20700F0E780DEF80020D20700F0E68040
:101B5000DEF80020D20700F0E580DEF80020D20792
:101B600000F0E480DEF80020D20700F0E380DEF829
:101B70000020D20700F0E280DEF80020D20700F05B
:101B8000E180BCF1180C84D167E100BF022464E15C
:101B90004FF4704CDEF80020D20700F04781DEF8E9
:101BA0000020D20700F0E880DEF80020D20700F025
:101BB000E780DEF80020D20700F0E680DEF80020A3
:101BC000D20700F0E580DEF80020D20700F0E480C4
:101BD000DEF80020D20700F0E380DEF80020D20714
:101BE00000F0E280DEF80020D20700F0E180DEF8AD
:101BF0000020D20700F0E080DEF80020D20700F0DD
:101C0000DF80DEF80020D20700F0DE80DEF8002062
:101C1000D20700F0DD80DEF80020D20700F0DC8083
:101C2000DEF80020D20700F0DB80DEF80020D207CB
:101C300000F0DA80DEF80020D20700F0D980DEF86C
:101C40000020D20700F0D880DEF80020D20700F094
:101C5000D780DEF80020D20700F0D680DEF8002022
:101C6000D20700F0D580DEF80020D20700F0D48043
:101C7000DEF80020D20700F0D380DEF80020D20783
:101C800000F0D280BCF1180C84D10524DFE000BF45
:101C90000224DCE0ACF1010C56E000BFACF1020C18
:101CA00052E000BFACF1030C4EE000BFACF1040CFD
:101CB0004AE000BFACF1050C46E000BFACF1060CF9
:101CC00042E000BFACF1070C3EE000BFACF1080CF5
:101CD0003AE000BFACF1090C36E000BFACF10A0CF1
:101CE00032E000BFACF10B0C2EE000BFACF10C0CED
:101CF0002AE000BFACF10D0C26E000BFACF10E0CE9
:101D000022E000BFACF10F0C1EE000BFACF1100CE4
:101D10001AE000BFACF1110C16E000BFACF1120CE0
:101D200012E000BFACF1130C0EE000BFACF1140CDC
:101D30000AE000BFACF1150C06E000BFACF1160CD8
:101D400002E000BFACF1170CDEF80020520707D408
:101D5000DEF80020BCF1010F08D105247DE000BFB2
:101D60000224BCF1010F08BF052476E0D2067FF5FE
:101D700073AE032471E000BFACF1010C56E000BF6C
:101D8000ACF1020C52E000BFACF1030C4EE000BF1E
:101D9000ACF1040C4AE000BFACF1050C46E000BF1A
:101DA000ACF1060C42E000BFACF1070C3EE000BF16
:101DB000ACF1080C3AE000BFACF1090C36E000BF12
:101DC000ACF10A0C32E000BFACF10B0C2EE000BF0E
:101DD000ACF10C0C2AE000BFACF10D0C26E000BF0A
:101DE000ACF10E0C22E000BFACF10F0C1EE000BF06
:101DF000ACF1100C1AE000BFACF1110C16E000BF02
:101E0000ACF1120C12E000BFACF1130C0EE000BFFD
:101E1000ACF1140C0AE000BFACF1150C06E000BFF9
:101E2000ACF1160C02E000BFACF1170CDEF800209C
:101E3000520707D4DEF800200324D20658BF04243A
:101E400001E000BF0224BCF1010F08BF0524DEF849
:101E5000043023F00103CEF804304FF2E073C1F6F2
:101E6000FF731B686FF0784202EB8322824203D239
:101E7000204601B010BD00BF42F20C03C4F20203C1
:101E80001A68D2070AD11A68520757D41A68D206BC
:101E900040F1C8800324204601B010BD4FF4704CBF
:101EA00005241A68D20700F0A7801A68D20749D023
:101EB0001A68D2074AD01A68D2074BD01A68D207DC
:101EC0004CD01A68D2074DD01A68D2074ED01A6883
:101ED000D2074FD01A68D20750D01A68D20751D013
:101EE0001A68D20752D01A68D20753D01A68D2079C
:101EF00054D01A68D20755D01A68D20756D01A683B
:101F0000D20757D01A68D20758D01A68D20759D0CA
:101F10001A68D2075AD01A68D2075BD01A68D2075B
:101F20005CD01A68D2075DD01A68D2075ED01A68F2
:101F3000D2075FD0BCF1180CB3D199E70224204638
:101F400001B010BDACF1010C56E000BFACF1020CC9
:101F500052E000BFACF1030C4EE000BFACF1040C4A
:101F60004AE000BFACF1050C46E000BFACF1060C46
:101F700042E000BFACF1070C3EE000BFACF1080C42
:101F80003AE000BFACF1090C36E000BFACF10A0C3E
:101F900032E000BFACF10B0C2EE000BFACF10C0C3A
:101FA0002AE000BFACF10D0C26E000BFACF10E0C36
:101FB00022E000BFACF10F0C1EE000BFACF1100C32
:101FC0001AE000BFACF1110C16E000BFACF1120C2E
:101FD00012E000BFACF1130C0EE000BFACF1140C2A
:101FE0000AE000BFACF1150C06E000BFACF1160C26
:101FF00002E000BFACF1170C1A68520708D41A6847
:10200000BCF1010F0CD10524204601B010BD00BF6A
:102010000224BCF1010F08BF0524204601B010BD09
:10202000D20661D45A6842F001025A600160186811
:10203000C00709D1186840075AD418680324C0069D
:1020400058BF042490E000BF4FF470401968C907DE
:1020500000F07D801968C9074CD01968C9074BD0BA
:102060001968C9074AD01968C90749D01968C9074A
:1020700048D01968C90747D01968C90746D01968F8
:10208000C90745D01968C90744D01968C90743D0A2
:102090001968C90742D01968C90741D01968C9072A
:1020A00040D01968C9073FD01968C9073ED01968E0
:1020B000C9073DD01968C9073CD01968C9073BD08A
:1020C0001968C9073AD01968C90739D01968C9070A
:1020D00038D01968C90737D01968C90736D01838F9
:1020E000B4D1052440E000BF0324204601B010BD58
:1020F000022439E001382AE0023828E0033826E0DB
:10210000043824E0053822E0063820E007381EE0D5
:1021100008381CE009381AE00A3818E00B3816E0D5
:102120000C3814E00D3812E00E3810E00F380EE0D5
:1021300010380CE011380AE0123808E0133806E0D5
:10214000143804E0153802E0163800E01738196832
:10215000490705D419680324C90658BF042400E0C0
:102160000224012808BF0524586820F001005860A7
:10217000204601B010BD000042F2040040F22311DD
:10218000C4F20200C4F26751016048F6AB11CCF60C
:10219000EF51016070470000B0B5CB7803F00F0C31
:1021A000DA0644BF8A784CEA020C09885FEA016EBD
:1021B00000F0F0800268282B16D0482B2ED1CC07D7
:1021C0005ED18C0764D44C076AD40C0770D4CC065B
:1021D00077D48C0600F17E804C0600F18480BEF13D
:1021E000000F00F18980D4E0CC0740F08D808C078F
:1021F00000F193804C0700F199800C0700F19F805B
:10220000CC0600F1A5808C0600F1AB804C0600F1F5
:10221000B180BEF1000F00F1B680BAE022F00F04E9
:10222000CD0718BF44EA0C0222F0F0048D0748BF26
:1022300044EA0C1222F470644D0748BF44EA0C22B1
:1022400022F470440D0748BF44EA0C3222F4702493
:10225000CD0648BF44EA0C4222F470048D0648BF04
:1022600044EA0C5222F070644D0648BF44EA0C6206
:10227000BEF1000F44BF22F0704242EA0C7288E0C7
:1022800022F00F0242EA0C02012404618C079AD565
:1022900022F0F00242EA0C12022404614C0794D5A9
:1022A00022F4706242EA0C22042404610C078ED5E9
:1022B00022F4704242EA0C3208240461CC067FF515
:1022C00088AF22F4702242EA0C42102404618C068A
:1022D0007FF582AF22F4700242EA0C52202404619E
:1022E0004C067FF57CAF22F0706242EA0C6240241B
:1022F0000461BEF1000F4CD522F07042802542EA05
:102300000C72056145E000BF22F00F0242EA0C02A8
:10231000012444618C077FF56DAF22F0F00242EAA0
:102320000C12022444614C077FF567AF22F47062FF
:1023300042EA0C22042444610C077FF561AF22F4C9
:10234000704242EA0C3208244461CC067FF55BAF50
:1023500022F4702242EA0C42102444618C067FF57C
:1023600055AF22F4700242EA0C52202444614C061C
:102370007FF54FAF22F0706242EA0C624024446164
:10238000BEF1000F05D522F07042802542EA0C72A2
:1023900045610260B1F5807F38BFB0BD4268282B2F
:1023A00016D0482B2CD1CB055CD48B0563D44B05C0
:1023B0006AD40B0571D4CB0479D48B0400F18180ED
:1023C0004B0400F18880090400F18F804260B0BDA9
:1023D000CB0500F193808B0500F19A804B0500F14D
:1023E000A1800B0500F1A880CB0400F1AF808B0425
:1023F00000F1B6804B0400F1BD800904E6D5C3E0CE
:1024000022F00F03CD0548BF43EA0C0222F0F0038F
:102410008D0548BF43EA0C1222F470634D0548BF96
:1024200043EA0C2222F470430D0548BF43EA0C3204
:1024300022F47023CD0448BF43EA0C4222F4700317
:102440008D0448BF43EA0C5222F070634D0448BF2C
:1024500043EA0C62090444BF22F0704141EA0C7265
:102460004260B0BD22F00F0242EA0C024FF48073CA
:1024700003618B059BD522F0F00242EA0C124FF467
:10248000007303614B0594D522F4706242EA0C227A
:102490004FF4806303610B058DD522F4704242EA4C
:1024A0000C324FF400630361CB047FF586AF22F456
:1024B000702242EA0C424FF4805303618B047FF593
:1024C0007FAF22F4700242EA0C524FF400530361D2
:1024D0004B047FF578AF22F0706242EA0C624FF451
:1024E0008043036109047FF571AF22F0704141EA36
:1024F0000C724FF4004101614260B0BD22F00F0246
:1025000042EA0C024FF4807343618B057FF566AF9E
:1025100022F0F00242EA0C124FF4007343614B05C3
:102520007FF55FAF22F4706242EA0C224FF48063C1
:1025300043610B057FF558AF22F4704242EA0C323A
:102540004FF400634361CB047FF551AF22F4702256
:1025500042EA0C424FF4805343618B047FF54AAF4B
:1025600022F4700242EA0C524FF4005343614B04D0
:102570007FF543AF22F0706242EA0C624FF4804371
:10258000436109047FF522AF22F0704141EA0C72E9
:102590004FF4004141614260B0BD0000B0B5B0F100
:1025A000004F1FD9C0F30213C0F3D7124FEA830CB8
:1025B0000C24052A08BF04EAD00C541E40F2040E75
:1025C000042CC4F2010E00F2A380DFE814F0050031
:1025D000A700AD00B300CB000EF1200E062B40F299
:1025E000AD80C3E0B0F5406F1EDA3F283EDDB0F5A8
:1025F000007F80F2C580402800F05881802800F0DC
:102600006381B0F5807F40F027810420C4F201008F
:102610000268012922F44072026040F01D810168C5
:1026200041F480710160B0BDB0F5802F56DBB0F190
:10263000806F80F2BD80B0F5802F00F05B80B0F13C
:10264000807F00F04F81B0F1007F40F005810420D1
:10265000C4F201000268012922F0E062026040F049
:10266000FB80016841F000710160B0BD421E1F2A6D
:1026700000F2F280DFE812F020003E00F0003E00A1
:10268000F000F000F000F000F000F000F000F000CA
:10269000F000F000F0004401F000F000F000F00065
:1026A000F000F000F000F000F000F000F000F000AA
:1026B000F000F000F00052010420C4F201000268B2
:1026C0004FF6FE73C7F6FF731A400129026040F00F
:1026D000C380016841F001010160B0BDB0F5004F59
:1026E000C0F2CE8006D0B0F5803F03D0B0F5003FF9
:1026F00040F0B2800422C4F201021368012923EAE7
:102700000003136040F0A880116808431060B0BD5A
:102710000EF11C0E062B11D928E000BF0EF1240E7D
:10272000062B0BD922E000BF0EF1280E062B05D98F
:102730001CE000BF0EF12C0E062B17D8DFE803F0CB
:1027400004505E6C7A848E00DEF80030052A14BFD7
:1027500023F00F0223F003020129CEF800207BD1E1
:1027600084E000BF0EF1300E062BE7D9DEF8002022
:1027700022F070420129CEF800206DD176E000BF32
:1027800000F0DA80B0F5407F00F0E680B0F5006F31
:1027900062D10420C4F201000268012922F44062DF
:1027A000026059D1016841F400610160B0BD00BF11
:1027B00000F0E280B0F1884F00F0EE80B0F1904F71
:1027C0004AD10420C4F201008269012922F040624A
:1027D000826141D1816941F000618161B0BD00BF7A
:1027E000DEF80030052A14BF23F0F00223F00C02BB
:1027F0000129CEF800202FD138E000BFDEF80030EC
:10280000052A14BF23F4706223F030020129CEF8A8
:10281000002021D12AE000BFDEF80030052A14BFD5
:1028200023F4704223F0C0020129CEF8002013D116
:102830001CE000BFDEF8002022F470220129CEF84F
:10284000002009D112E000BFDEF8002022F470025F
:102850000129CEF8002009D0B0BD00BFDEF800206D
:1028600022F070620129CEF80020F5D100F00F00AF
:10287000DEF8001000FA0CF00843CEF80000B0BDFE
:10288000B0F5406F00F09880B0F5804FE4D104209F
:10289000C4F201000268012922F4C0420260DBD1C7
:1028A000016841F480410160B0BD00BF0420C4F262
:1028B00001000268012922F0C0020260CCD1016847
:1028C00041F040010160B0BD0420C4F20100026883
:1028D000012922F0C0020260BED1016841F08001EE
:1028E0000160B0BD0420C4F201000268012922F099
:1028F000E0620260B0D1016841F080710160B0BD5A
:102900000420C4F201000268012922F030020260B2
:10291000A2D1016841F010010160B0BD0420C4F2F1
:1029200001000268012922F03002026094D101689E
:1029300041F020010160B0BD0420C4F20100026832
:10294000012922F4407202607FF486AF016841F4ED
:1029500000710160B0BD00BF0420C4F20100026834
:10296000012922F4407202607FF476AF016841F4DD
:1029700040710160B0BD00BF0420C4F201000268D4
:10298000012922F0E06202607FF466AF016841F045
:1029900080610160B0BD00BF0420C4F20100826903
:1029A000012922F04062826118BFB0BD816941F007
:1029B00080618161B0BD00BF0420C4F201000268E3
:1029C000012922F4406202607FF446AF016841F4BD
:1029D00040610160B0BD00004FF6FF71C0F20241DE
:1029E00001607047FEE7000043F20000C4F20000FF
:1029F0004AF6AA210160704743F20000C4F20000C9
:102A00004CF6CC41016045F2555101600321416013
:102A10004FF47A6181604AF6AA2101607047000094
:102A2000FEE700007047000070470000B0B545F2B7
:102A30000C40C4F20100018840F2000521F00101C0
:102A40000180C2F2000540F28C44B5F84E00C2F29B
:102A50000004B4F8441000EB400008448008A5F8D6
:102A60004E0000F08DFEB5F84E00A979C208514322
:102A7000A27DC1EB5000002A2187A4F8420008BFC4
:102A800001F08EFBA06F42F20F7188429CBF0130B3
:102A9000A067B0BD002941F21401C4F202010A6826
:102AA0000CBF22EA0000104308607047002941F281
:102AB0001C01C4F202010A680CBF22EA00001043A4
:102AC00008607047002941F21001C4F202010A684F
:102AD0000CBF22EA0000104308607047002941F251
:102AE0001801C4F202010A680CBF22EA0000104378
:102AF00008607047002941F20C01C4F202010A6823
:102B00000CBF22EA000010430860704780B581B016
:102B100041F2040C0023C4F2020C0093DCF80030F4
:102B20004FF0040EDB0305D5DCF800309B0358BFE3
:102B30004FF0080E0EFB00F3B3FBF1F3000200931D
:102B4000DCF828E00823C7F6FF0340EA011003EA97
:102B50000E031043184340F00040CCF8280001B0A9
:102B600080BD000041F25401C4F202010A6801284C
:102B700022F0300208BF30320A6070477047000010
:102B80007047000070B582B041F204044FF6FF7543
:102B90004FF080500121C4F20204C1F20075FFF72A
:102BA00085FF47F25000C4F200000178002641F092
:102BB000040101704FF080500021FFF777FF54F8B7
:102BC000040C0C2140F0010044F8040C2068CEF6FF
:102BD000FF010840206054F8040C4FF6FF71CFF657
:102BE000F661084044F8040C54F8040C4FF60071E8
:102BF00020F4802044F8040C2068CFF6FE612840C1
:102C00002060E06A0840E0624FF41F0060600196B7
:102C1000009654F8040C40F0010044F8040C4FF600
:102C2000FF7000BF54F8041C01F0020100910199EB
:102C300001310191009911B901998142F2D154F801
:102C4000040C800754BF0020012000900098012848
:102C500067D142F20000C4F202000168022241F092
:102C600010010160016821F007010160016841F075
:102C700004010160206805F10C612060206820F4E7
:102C800060502060206840F400502060206820F4EC
:102C9000E0602060206840F4806020602068084088
:102CA00020602068012120609620FFF72FFF54F854
:102CB000040C40F0807044F8040C00BF54F8040C7D
:102CC00080015FBF54F8040C5FEA801054F8040CD4
:102CD0005FEA801003D454F8040C8001EED5012083
:102CE000FFF740FF206820F003002060206840F0DC
:102CF00002002060206800F00C0008280ED0206838
:102D000000F00C00082809D0206800F00C0008280A
:102D100004D0206800F00C000828EBD10020FFF759
:102D200021FF4EF6085041F20001CEF20000C0F63D
:102D30000001016002B070BD70B501200121FFF7F4
:102D4000CDFE4FF400600121FFF7C8FE42F6444675
:102D5000C4F2010641F2883046F8180C002040F613
:102D6000000426F81C0C46F66800C4F2010426F89C
:102D70002C0C682004F5105526F8280C284608214C
:102D800000F0B6F82846082100F0B8F828460821D7
:102D900000F0BCF82846012100F06EF830880121CF
:102DA00040F03C0030804FF40060FFF797FE0820B1
:102DB0000121FFF793FE04200121FFF78FFE04F5A8
:102DC0008065284618210022022301F037FA2846A0
:102DD00018210022012301F031FA20461821002297
:102DE000802301F02BFA40200121FFF7D7FB20467A
:102DF000182100224FF4806301F020FA20461821A8
:102E000000224FF4007301F019FA20461821002225
:102E10004FF48073BDE8704001F010BA44F61040E2
:102E2000C4F201004FF6FE71018002F089BF00007C
:102E30006FF0040045F21002C11CC4F201021180BF
:102E4000811C11801080704745F21040C4F20100CF
:102E500000210180FFF7EABD40F21040C4F20000FB
:102E6000018889074FF6FD7148BF01800288D207AB
:102E70001CBF0131018070470288002918BF012161
:102E800022F0800242EAC1110180704780B54FF004
:102E9000010CB0F820E00CFA01F32EEA03030384DE
:102EA000038C02FA01F11943018480BD80B54FF013
:102EB000040CB0F820E00CFA01F32EEA03030384BB
:102EC000038C02FA01F11943018480BD02880029B4
:102ED00018BF012122F00102114401807047000057
:102EE000002A82890CBF22EA0101114381817047C7
:102EF000028B22F00802114301837047028B22F4F7
:102F0000006242EA0121018370470000828B22F0B7
:102F1000080211438183704780B542F6FF31C4F245
:102F2000010188421ADC40F2FF71C4F200018842BC
:102F300032DCB0F1804F5FD040F20041C4F20001BA
:102F4000884240F0858002200121FFF7BBFD02206E
:102F50000021BDE88040FFF7B5BD00BF44F6FF711A
:102F6000C4F2010188422DDC42F60041C4F20101A5
:102F700088424BD044F60041C4F20101884267D137
:102F80004FF400200121FFF7B5FD4FF40020002190
:102F9000BDE88040FFF7AEBD40F60001C4F200017D
:102FA00088423FD040F60041C4F2000188424FD130
:102FB00008200121FFF786FD08200021BDE88040A0
:102FC000FFF780BD45F20001C4F20101884233D011
:102FD00045F20041C4F20101884218BF80BD4FF4A0
:102FE00000100121FFF786FD4FF400100021BDE81D
:102FF0008040FFF77FBD00BF01200121FFF762FD88
:1030000001200021BDE88040FFF75CBD4FF4006067
:103010000121FFF76FFD4FF400600021BDE8804003
:10302000FFF768BD04200121FFF74CFD04200021BB
:10303000BDE88040FFF746BD4FF480100121FFF747
:1030400059FD4FF480100021BDE88040FFF752BDCC
:1030500080BD00002DE9F04108200121FFF73EFD71
:1030600001200121FFF716FD01200121FFF736FDA8
:103070004FF000700121FFF791FA4FF40060012139
:10308000FFF78CFA40F20044C4F2000404F58435E2
:1030900028461821002210234FF00008102601F0C6
:1030A000CDF86C20C4F2020040F68A114EF20017EF
:1030B0000160CEF200074FF4803087F8106338606B
:1030C00002200121FFF7F2FC4FF6FF70E0621320AF
:1030D000208520460121FFF7F9FE20460121FFF758
:1030E000CBFE284604210022102301F0A7F84EF25F
:1030F0001D40CEF200004FF0005280F800802046C4
:1031000001213A60BDE8F041FFF7E0BE70470000E2
:10311000FEE700002DE9F04140F2000CC2F2000C85
:1031200040F28C4E9CF81920C2F2000EBEF84C0002
:10313000D2B1431E18B2002848BF40F26713BEF850
:103140004E00AEF84C30421E10B2002848BF40F28C
:103150006712BEF85000AEF84E20013801B20029C7
:1031600048BF40F2671019E0431C18B2B0F5B47FB5
:10317000A8BF0023BEF84E00AEF84C30421C10B27F
:10318000B0F5B47FA8BF0022BEF85000AEF84E20C4
:10319000013001B2B1F5B47FA8BF0020AEF85000F5
:1031A00040F2E40E19B2C2F2000E3EF91140BCF832
:1031B0004C30BCF83E101C4444F6D3584C43C1F28A
:1031C000620854FB08F4E6119CF8085006EBD4762C
:1031D00046F267646E43C6F2666456FB04F6B710A7
:1031E00007EBD67742F63446C4F20106376012B2D6
:1031F0003EF9122000B21A444A4352FB08F2D7119A
:1032000007EBD2726A4352FB04F2971007EBD272BB
:1032100072603EF910001844484350FB08F0C11199
:1032200001EBD070684350FB04F0811001EBD070CB
:10323000B060BDE8F0810000F0B581B040F6000458
:10324000C4F2010404F580652846102100220223FF
:10325000022600F0F3FF40F61447C4F201072046AF
:10326000102100224FF480633E604FF4806600F02E
:10327000E5FF28461021002201236661012500F0A8
:10328000DDFF2046102100224FF400733D604FF413
:10329000007500F0D3FF20461021002280236561D5
:1032A000802500F0CBFF2046102100224FF48073D0
:1032B00065614FF4807500F0C1FF656101B0F0BD3C
:1032C00070B540F20105C2F20005287840F600040E
:1032D000C4F20104002804F5806005D01821002202
:1032E000022300F0ABFF0AE0102100220223022695
:1032F00000F0A4FF40F61440C4F20100066020462E
:10330000182100224FF4806300F098FF287838B12C
:1033100004F5806018210022012300F08FFF0CE0EB
:1033200004F58060102100220123012600F086FFB1
:1033300040F61440C4F20100066020461821002225
:103340004FF4007300F07AFF287838B12046182136
:103350000022802300F072FF08E000BF2046102109
:1033600000228023802500F069FF65612046182136
:1033700000224FF48073BDE8704000F05FBF000092
:1033800040F21C03C2F200031A7842F20040C1214D
:10339000C4F20000042AC4F2000101D0012A03D1C2
:1033A00001F1100202601A78052A01D0022A03D125
:1033B00001F1200202601A78062A03D0032A08BF0E
:1033C000016000E0016040F2180140F20840C2F2E2
:1033D0000001C4F201000A7801683AB121F4002129
:1033E0000160416841F400214160704741F40021CF
:1033F0000160416821F4002141607047F0B581B05F
:103400000138052800F2B981DFE800F0041856946D
:10341000BCE800BF40F20100C2F20000007840F6B4
:103420000004C4F20104002804F5806000F0EE807E
:1034300018210022022300F001FFF2E040F6000410
:10344000C4F2010404F580652846102100220223FD
:10345000022600F0F3FE40F61440C4F201000660BC
:103460002046102100224FF480634FF4806600F064
:10347000E5FE28461021002201236661012500F0A7
:10348000DDFE2046102100224FF40073C4F81054D2
:103490004FF4007500F0D2FE40F201006561C2F207
:1034A00000000078002800F0D98020461821002272
:1034B000802300F0C3FEE3E040F60004C4F2010400
:1034C00004F580652846102100220223022600F020
:1034D000B5FE2046102100224FF48063C4F810642A
:1034E0004FF4806600F0AAFE284610210022012336
:1034F0006661012500F0A2FE40F61440C4F201000E
:1035000005602046102100224FF400734FF400752F
:1035100000F094FE40F201006561C2F20000007804
:10352000002800F0A580204618210022802300F00A
:1035300085FEA5E040F60004C4F2010404F58065B0
:103540002846102100220223022600F077FE2046A2
:10355000102100224FF48063C4F810644FF4806699
:1035600000F06CFE40F201006661C2F200000078DB
:10357000002800F08F80284618210022012300F047
:103580005DFE93E040F60004C4F2010404F580659A
:1035900040F614462846102100220223C4F20106F8
:1035A000022700F04BFE2046102100224FF48063DA
:1035B00037604FF4806700F041FE40F20100676120
:1035C000C2F200000078002800F080802846182110
:1035D0000022012300F032FE80E000BF40F2010033
:1035E000C2F20000007840F6000440F61445C4F230
:1035F0000104C4F20105002804F5806000F08A800F
:1036000018210022022300F019FE8AE01021002276
:103610000223022500F012FE40F61440C4F201001D
:1036200005602046182100224FF4806300F006FE5A
:1036300004F58060102100220123012500F0FEFD29
:103640002046102100224FF40073C4F810544FF4A8
:10365000007500F0F3FD65612FE000BF20461021EA
:1036600000228023802500F0E9FD656108E000BFAD
:103670002046102100228023802500F0DFFD6561B7
:103680002046182100224FF4807301B0BDE8F040BD
:1036900000F0D4BD2846102100220123012500F0AE
:1036A000CDFD40F61440C4F201000560204618210B
:1036B00000224FF4007300F0C1FD204610210022CB
:1036C0008023802500F0BAFD656116E028461021B0
:1036D00000220123012500F0B1FD356020461821AC
:1036E00000224FF4007300F0A9FD204610210022B3
:1036F0008023802500F0A2FD2561204610210022B4
:103700004FF480734FF4807500F098FD656101B04F
:10371000F0BD00BF102100220223022600F08EFD22
:103720002E602046182100224FF4806300F086FDB1
:1037300004F58060102100220123012600F07EFDA7
:103740002046102100224FF400732E604FF40075C4
:1037500000F074FD20461021002280236561802541
:1037600000F06CFD2046102100224FF4807325618B
:103770004FF4807500F062FD656101B0F0BD00009E
:103780002DE9F04381B040F20000C2F2000040F2A7
:103790000853017FC2F20003B0F84E201F1D07EB53
:1037A000410727F8022C9A88DF881E893A445F89EE
:1037B00032443A449F89DB89467E3A441A4440F2B7
:1037C0008C455208C2F20005012E6A670AD1013108
:1037D000CAB2072A017722BF01210177A97401F03B
:1037E000010209E001390A06017703D1062101220D
:1037F0000177AA7401228A4345F22404C4F2010429
:10380000027600202060687D10B9C8B2FFF7F6FD8F
:103810002068E884FFF7B4FDE86EB0F5FA6F05D9CB
:103820002879A97A08431CBF0120A875E87A0021ED
:103830000028A5F8211055D0687E002852D040F20B
:103840006406288DD5E91D18C2F20006B369091A6D
:10385000D6E9010237695C1804FB0272376AF46822
:10386000D5F86090BA42C8BF3A467F42CB1ABA42F6
:10387000B8BF3A4604FB0327316000FB0170776A4A
:103880006343B842C8BF38467F42B842B8BF3846E3
:10389000C6E90423C6E9061003F010F944F200015A
:1038A000C4F21C6102F0DAFF0146484602F000FF54
:1038B0004EF20001C4F2FF41044602F0A7FF0028C7
:1038C0001CBF4EF20004C4F2FF4420460021002732
:1038D00002F0B1FF002818BF0024B8F1630F2C6676
:1038E00098BF376101B0BDE8F08300002DE9F04FCB
:1038F0008FB040F25851C2F200010B68D1F87CE061
:103900004FF24740AEEB0307CFF6FF7010FA87F097
:1039100040F2CE7640F21849B042C2F20009A9F84E
:10392000067000F2AD81D1E90176D1E90354A7EB2D
:10393000030AA81BD1E90536CD690D90181B01F1CA
:1039400020080C90A81B98E8FC010B90D1E90F0C03
:103950009A1A0A922A1BA0EB08000992BA1B05903A
:10396000D1E912604D6C801B0690D1E91470089269
:10397000A5EB0C02D1E91654C01B0490601B0E90FD
:10398000D1E91840D1E91A5B001B0390ABEB0500AD
:10399000D1E91C540290631B48F689050D98C8F6BE
:1039A00088050792AAFB0528A0FB052A0C9A896FB7
:1039B000A2FB052B0B9AAEEB0101A2FB05200A9A94
:1039C0000190A2FB0526099AA2FB052C089AA2FBEE
:1039D000052000900598A0FB052008900798A0FB03
:1039E000052706980B97A0FB052E0498A0FB05243D
:1039F00003980C94A0FB052007900298A0FB0520DB
:103A00000990A3FB05200A90A1FB05200E99B3099C
:103A1000A1FB0525AA094FEA9C1183EA98160D908F
:103A2000C9F84420820986EA971681EA9A17009815
:103A300087EA9E17C9F85420BF008009089A47EA10
:103A4000C60780EA9B16DDF804C086EA9416920940
:103A500047EA460682EA9C1787EA9515079C354394
:103A60000895A509099C0790A6090A9CC9F84C600D
:103A7000B600C9F830000B98C9F8485046EAC505A9
:103A8000A409C9F8504045EA44054FEA98140A923F
:103A9000C9F834204FEA90180D9840F2A94640F238
:103AA00058624FEA9A17C2F20006C2F20002039768
:103AB000C9F81C704FEA9B170991C9F82C104FEAFE
:103AC0009E1145EA901E96F800B092F800A00C985E
:103AD0000497C9F820704FEA9C174FEA901C5AEAE5
:103AE0000B05C9F818400597C9F824700693C9F862
:103AF0002830C9F83880C9F83C10C9F840C05DD1F9
:103B000040F60845C4F201052D68ED0656D599F832
:103B1000025037460135EEB2652E3E4689F8025016
:103B20004CD301251570CEF10F0E08988EEA0007D0
:103B30003F064DD10698B9F80830820142EA842246
:103B4000039842EA880242EA4020099A40EA421079
:103B500040EA41000499002240EA0120079940EA26
:103B60000110059940EA0C0040EAC1100A9940EAA8
:103B7000C10140F27670C2F2000002800E9A581C19
:103B8000783A772AA9F8080005D840F2A040C2F296
:103B9000000001220270302920DB40F2CA40C2F24C
:103BA0000000018040F25960C2F200000021017063
:103BB00089F800100FB0BDE8F08F00BFBAF1000F18
:103BC00018BFCEF10F0E08988EEA00073F06B1D05D
:103BD000B9F80A000130A9F80A0051E0012911DB07
:103BE00040F2CA40C2F200000022028040F2596056
:103BF000C2F20000CBB20170BBF1000F18BF002B66
:103C00003ED00BE000293FD040F25960C2F20000E4
:103C10000378BBF1000F18BF002B31D040F2A54054
:103C2000C2F20000007800282AD199F801008342EE
:103C30001EBF89F80130002089F80000052B07D34A
:103C400099F800000130C1B2062989F8000017D3A5
:103C5000591E0024142989F8004000F29580DFE8FD
:103C600001F00B23279393932B3D515F936D717755
:103C7000939393939381890001F0A6FD84E000BFA4
:103C80000FB0BDE8F08F00BF40F2CA40C2F20000A2
:103C90000021018040F25960C2F20000017089F8F1
:103CA00000100FB0BDE8F08F01F0C4FD6CE000BF64
:103CB00001F05AFC68E000BF40F28D40C2F2000003
:103CC0000021017040F21900C2F2000001210170D0
:103CD00040F29D40C2F20000017055E040F28D407C
:103CE000C2F200000121017040F21900C2F200008E
:103CF0000021017040F29D40C2F2000002210170DB
:103D000042E000BF40F28E40C2F20000002101708C
:103D100040F2C640C2F200003170018034E000BFC2
:103D200040F28E40C2F200000121017040F2C64014
:103D3000C2F2000000210180317025E001F0AEFEEA
:103D400022E000BF012089F803004FF4606004E026
:103D5000002089F8030040F6FF60A9F8040001F094
:103D6000D7FA11E040F28D40C2F200000078C0F1B5
:103D7000010004E040F28D40C2F20000007840F201
:103D80001901C2F20001087040F25960C2F200004D
:103D9000017840F27472C2F20002117004700FB028
:103DA000BDE8F08F70B582B040F25855C2F2000500
:103DB000D5E9000140F27652081AA0F2213140F212
:103DC00070449142C2F2000436D86178D1B3E178F0
:103DD000002951D0217940F2E14290420BD840F2C3
:103DE0002602C2F2000213880131C3EBC303184458
:103DF000C00821711080C8B24C286BD340F2260055
:103E0000C2F2000001880025193101804FF61250DE
:103E1000CFF6FF7010FA81F000EBD07040F25A61DB
:103E20004008C2F2000181F82000657001F036FE02
:103E3000257101F069FC4DE040F2C640C2F200007D
:103E40004CE000BF40F28E41C2F20001097839B364
:103E500040F22A01C2F200010A8890422ED940F2B3
:103E60002801C2F200010B88511C4FF4FA661A4671
:103E700040F2E9332AE000BFA17840F22806002989
:103E80000CBFE080E0880131C2F20006A1703188E9
:103E900080B200F0CFF933283EDB002060705CE098
:103EA00040F2260140F22802C2F20001C2F20002F2
:103EB000098812884FF4FA6607E000BF40F2260135
:103EC000C2F2000109884FF47A760023009601F0CF
:103ED0002BFBE06040F27670C2F2000040F2CA4173
:103EE000C2F2000140F2E006E2680B88C2F200066E
:103EF0003668D51AB5424FF00005058004DD9A19E1
:103F00000A8002B070BD00BF981AB042C8BF9A1BA9
:103F10000A8002B070BD00BF3088D5E90012C0EB46
:103F2000C000511A0844A178C0083329308014D346
:103F30004FF62A111938CFF6FF71308011FA80F050
:103F400000EBD07040F25A614008C2F2000181F8E3
:103F500021000120E07001F007FCE07831880028A2
:103F6000E180B7D0D5E90001081A217940F2E14299
:103F700090427FF634AF3EE745F22401C4F20101DE
:103F800000220A6007E000BF0A68824228BF70472B
:103F90000A68824205D20A68824202D20A688242D4
:103FA000F2D3704745F22401C4F2010100220A60F5
:103FB00043F6982200EB80008A800122400021F81D
:103FC000102C00BF0A68824208D20A68824205D2D9
:103FD0000A68824202D20A688242F3D3962088801D
:103FE000012021F8100C7047F0B540F25853C2F28E
:103FF000000340F2804140F2AB4E40F2AC4C1E68F0
:10400000C2F2000144F62062C2F2000E0020C2F2A9
:10401000000C00244A608EF800008CF8000002E0DA
:104020002830782852D01D186F68BE1B04D0344445
:1040300096423CBF4E603246AE68F71B04D03C440B
:1040400097423CBF4F603A46EF68BE1B04D03444F1
:1040500096423CBF4E6032462E69F71B04D03C446A
:1040600097423CBF4F603A466F69BE1B04D0344450
:1040700096423CBF4E603246AE69F71B04D03C44CA
:1040800097423CBF4F603A46EF69BE1B04D03444B0
:1040900096423CBF4E6032462E6AF71B04D03C4429
:1040A00097423CBF4F603A466F6ABE1B04D034440F
:1040B00096423CBF4E603246AE6AF51BB0D02C44EF
:1040C00095423CBF4D602A46AAE700BFE00963095C
:1040D0000E288B601AD8931E032B17D240F258007B
:1040E000C2F200004FF43053038001234B708EF86E
:1040F000003040F2DC03C2F2000342F210774FF6C8
:10410000E8511F802023C0E9013124E0182822D87B
:10411000501F03281FD840F258030120C2F20003A9
:104120008EF8000018700320487040F22440C4F25A
:1041300000004FF6FF72026040F2DC02C2F20002A1
:1041400042F21077178020222C205A604A6858705B
:104150004FF6E8509860A2F11F00B0F59C4F10D8C0
:1041600001208CF8000040F25800C2F200007721D4
:10417000017040F2DC01C2F2000123230B80022116
:1041800041604FF0000022B144F620618A4218BF1E
:10419000012040F2AA41C2F200010870F0BD000007
:1041A00040F20040C4F20100016841F400210160C6
:1041B0007047000070B540F60004C4F2010404F535
:1041C00080652846102100220223022600F036F8DE
:1041D0002046102100224FF48063C4F810644FF48D
:1041E000806600F02BF8284610210022012366612A
:1041F000012500F023F82046102100224FF400731F
:10420000C4F810544FF4007500F018F8204610213F
:10421000002280236561802500F010F820461021DF
:1042200000224FF4807325614FF4807500F006F88A
:10423000656170BD401A48BF40427047F0B581B01B
:104240006F4672B6064638461C460D46FEF7C4FB5E
:1042500030463946ADF800408DF80350FDF79CFF1D
:1042600062B601B0F0BD00002DE9F0470120012148
:10427000FEF710FC4EF20015CEF20005102085F876
:1042800010034FF480302860FEF756FD0420012112
:10429000FEF70CFC40F62800C4F200004FF6FF7851
:1042A0004FF04A0AC0F80480A0F800A04FF40020A4
:1042B0000121FEF713FC44F62847C4F201076420ED
:1042C000786095203880202085F818034FF08070A2
:1042D000286004200121FEF701FC40F60004C4F22E
:1042E000010420460021002202234FF00009FFF7BD
:1042F000A5FF4FF400700121FEF7D8FB20460021F6
:1043000000222023FFF79AFF4EF21A44CEF2000457
:10431000402084F82C90A86000200121FDF7D6F8F9
:104320004FF480100121FEF7D9FB4FF62C4045F2E7
:104330000046CFF6FF70C4F2010646F8008007F58C
:1043400076700121A7F800A4FEF796FD4FF4001047
:104350000121FEF7C3FB4FF4FA70F062A6F828A023
:10436000308840F0800030804FF0806084F800900A
:104370002860BDE8F047FEF76DBE0000F0B581B0E3
:1043800040F28C44C2F20004E06E40F624057E2820
:10439000C4F2000524D328687C280BD8B4F8400068
:1043A000C0084A2806D8A06FB0F5FA7F02D201B043
:1043B000F0BD00BF40F20001C2F200012868B1F870
:1043C0004E10B0EB510FF2D3E07E0130C1B265293F
:1043D000E07605D301F0BCF80020A06701B0F0BD85
:1043E00040F20006C2F200062968327EB07DA4F8D1
:1043F00044105AB1A8B100270020FDF777F8012832
:10440000D5D0B07D01378742F6D30AE048B1002706
:104410000020FDF76BF80028C9D0B07D0137874236
:10442000F6D301F095F800202860B4F84210327DF0
:10443000D14045F20C42C4F20102A4F8421090614E
:1044400011629080108840F00100108001B0F0BD32
:10445000F0B581B040F25A64C2F2000447F6004160
:10446000C0F600012046B02201F09CFA607CA17CDD
:104470000138B0FA80F040F28C474009C2F20007E0
:104480007870481EE27CB0FA80F04009012AB870CA
:1044900004BF01207871207D617D0138B0FA80F081
:1044A00040F200064009C2F200067070481EA27D6C
:1044B000B0FA80F04009B070501EB0FA80F04009A8
:1044C000E37DF070207E042BA0F1080128BF0223B9
:1044D0002829B37116D8182826D2A0F10C010B296F
:1044E00033D900F0FC01082940D141F2707C07214A
:1044F000102242F6E063CDF800C001F015F8F08715
:1045000035E000BF42F62C414FF47A60C4F201015D
:10451000B0870860607EA0F13201642936D9962008
:104520007086552030874AE040F29A2C182190225C
:104530004FF47A63CDF800C000F0F6FF0146207E0C
:10454000F187A0F10C010B29CBD84FF47A6C0C2128
:1045500018224FF4FA53CDF800C000F0E5FF0146F1
:10456000207EF18700F0FC010829BED0F08F42F6D2
:104570002C4281B2C4F201021160A6F84800A6F8EC
:104580004000607EA0F132016429C8D83C21F28F3E
:1045900001EB500144F6D3535143C1F26203A1FB36
:1045A00003150F2101EB90005043A0FB0301E80924
:1045B0007086C80930870A2000EBD1107087A07E72
:1045C000227F00EB8000142505EBC000F083501E15
:1045D000637FB0FA80F04009F870581EB0FA80F09E
:1045E000E17E400938710520F17101F09FFB607890
:1045F000002800F09B80A07F0B2888BF052001F0D9
:1046000095FBE07F94F820100138B0FA80F0400963
:10461000B87140F2EE2094F8212000EB410094F8AC
:104620002230F08440F2D66000EB4200308503F285
:104630005E50708594F8230094F824107073481E1F
:10464000B0FA80F094F825104009787201F1FA0070
:1046500094F82610B085481EB0FA80F04009B87270
:1046600094F828000021421F142AF97198BF307372
:1046700094F82900411E092998BF707294F82A0005
:10468000411EC9B2082919D8B07200EB80006FF042
:104690002D01A1EB4000617EF07251FA80F272862A
:1046A0004908B6F8462051FA80F1318752FA80F174
:1046B000F28EA6F8461052FA80F0F08694F82B009D
:1046C000A0F14601462998BF707194F82C00411E54
:1046D000622903D8400030840120387394F82D00FB
:1046E0002025411E092998BF3072F08B81084A2984
:1046F0009CBF0021F17348F21F51C5F2EB11A0FBE2
:1047000001124FF2F101CFF2F001A0FB0113F17998
:104710005209B5FBF1F11B09B2FBF1F2B3FBF1F168
:10472000A6F84220A6F8441001E000BFF08B40F24A
:10473000E2454FF4967140F6B83240F6C413009546
:1047400000F0F2FE71783086002904BF0020B870B6
:1047500001B0F0BD82B040F28C4545F2344A42F6D9
:10476000144742F6004640F6240B62B6C2F200053A
:104770000220C4F2010AC4F20107C4F20106C4F225
:10478000000BE874FFF770FD304600210122012480
:10479000FEF77CFB304604210122FEF777FB304612
:1047A00008210122FEF772FB304600210422FEF7A9
:1047B0007DFB304604210422FEF778FB30460821B9
:1047C0000422FEF773FB308840F001003080388E01
:1047D00040F40040388644F600403C80C4F20100BA
:1047E000B0F8001840F2004741F00101A0F80018AD
:1047F0002AF8204C3AF8281CC4F2000721F00101E5
:104800002AF8281CB0F8001441F00101A0F80014A7
:10481000B7F8001441F00101A7F8001405212BF8A6
:10482000104CE974028842F001020280848282897D
:1048300042F001028281CAF80010384600210122AC
:10484000FEF724FBBC82388840F001003880062047
:10485000E874CAF80000FFF7FBFD40F25A60C2F2AC
:104860000000C17840F200040129C2F2000402D124
:1048700001795B2946D045F60131A0F8031045F2D5
:104880004141C3F23321C0F8051046F25021C2F273
:104890003401C0F809104FF02031C0F80D10217814
:1048A000AF78417069786B790139B1FA81F14909C2
:1048B0004174791EB1FA81F149098174591E6278F7
:1048C000B1FA81F14909C174511E94F802E0B1FABC
:1048D00081F149090175AEF1010194F803C0B1FA03
:1048E00081F149094175ACF10101A279B1FA81F177
:1048F0004909C27547F600428175C0F60002B02131
:1049000001F00EF9687944F6D35200281CBFA08E3E
:104910006086E08FE18EC1F262024143A1FB021387
:10492000B4F846106F784143A1FB0212791E18BFFC
:1049300001216176E17A677801EBD311E186D10933
:10494000A087A4F84610002FA4F8480004BF002058
:104950006871A87A0721E974B0B14FF47A70A4F8AD
:1049600046000120A8700021E073208F6971A4F82F
:104970000110E170618F3230208701F13200618EC9
:10498000608701F132006086FEF736F8FEF72CF8FA
:1049900040F20110A5F81D003020A886E07940F211
:1049A000E2414008B1FBF0F04FF0010828854FF0DC
:1049B00030104FF00009E863092085F8088085F879
:1049C0000B8085F80590E874CAF80000A6F5006031
:1049D0004FF47A7A01902BE085F8198000F0B8FD49
:1049E000FEF76EFCFEF796FBE17941F65832B2FB1A
:1049F000F1F340F22A32A88FB2FBF1F7302178228E
:104A0000009700F091FDA4F84A0080B2FFF7B4FAD5
:104A1000B4F84A004FF41671B1FBF0F1B428A5F8D0
:104A20005C108EBF4FF6FF704FF4B4714843686757
:104A3000FDF7DAFFE87C0130C1B26529E8746FD375
:104A4000B5F8580040F6E44640F201117043C0F258
:104A50001001A0FB0112801A02EB5000217CC00A59
:104A6000484348F21F51C5F2EB11A0FB0101B5F814
:104A7000540095F82420EB8D801A95F82320A5F892
:104A80005400C2EBC200B5F85A702030C3EBC30328
:104A9000C0083B4485F82300B5F84600DB0803FB5B
:104AA00006F740F2FF46C0EBC000C4F6EC7600EB20
:104AB0005110A7FB0676C008A5F84600300A2886E4
:104AC000019820220121A5F85620EB85FCF7E4FC93
:104AD000687A18B3E87BA18DB5F846204843904228
:104AE0001AD9688DA97E4FF67C430130CFF6FF734B
:104AF00082B211FB03A1914268850FDAA5F83C90C0
:104B0000FEF79AFB00F024FD85F81990A5F83A907D
:104B100085F81D9002E000BFA5F82A9085F8139053
:104B2000AA78E97F012A85F81B9008BF00290BD0DD
:104B3000E88F002A18BF002922D1A886A96F002873
:104B400040F02D8148E100BFA97A637BE88F0029FE
:104B50000AEB430126D0814280F08780627E6F7825
:104B6000BA4240F080806F7EA5F83490002F77D055
:104B700085F81580AAEB430282427ADCA6E000BFEA
:104B8000B0F5836F42D3617E6A78914238D1B4F830
:104B90004E00228E904227D8A87E28BB0020E887AE
:104BA0002EE000BF81420BD3AAEB4302824200F306
:104BB000B980AAEB4301814240F2E280ECE000BF01
:104BC000627E6B789A4240F09C80B4F84E00238E4F
:104BD000984200F28780A87E002840F083804FF43E
:104BE0007A70E8878DE000BFC1F101006076C5F8FA
:104BF000789085F8168000F0ABFCE88F85F810906F
:104C0000A17CC1EB4001A1F60101A986A0F1300110
:104C100089B2C9087C291ED86978627EC1F1010376
:104C2000934213D1B4F84E00228E904204D8A87E4D
:104C300010B90020E88709E0C5F8789085F816805B
:104C4000617600F085FCE88F85F81090A17CC1EBBF
:104C500040013139A9863028C0F096809CE000BF21
:104C6000C2F1010262766A7D02B3AAEB430282427C
:104C70002CDD6978677EC1F10106BE4207D16F7EE7
:104C8000002F0CBF617685F81580A5F83490697DFA
:104C9000E1B9002140F2FF732F27009700F044FC98
:104CA0000146E88F637BA98610E000BF4FF4FA62EB
:104CB0002F2340F2FF77009700F036FC0146E88F83
:104CC000637BA986AAEB43028242D2DCAAEB4301B2
:104CD000814261D80AEB430181425DD305F115029F
:104CE00054E000BFC2F101006076C5F8789085F805
:104CF000168000F02DFC617BE88F85F810900AEBA0
:104D000041014FF4FA622F2340F2FF77009700F041
:104D10000BFC0146E88F637BA986AAEB4302824223
:104D20007FF747AF6978637EC1F101079F4218D1D1
:104D3000B4F84E00238E984206D8A87E20B94FF4CE
:104D40007A70E8870DE000BFC5F8789085F8168086
:104D5000617600F0FDFB617BE88F85F81090AAEB8F
:104D60004102002140F2FF732F27009700F0DCFB87
:104D70000146E88F637BA986AAEB430181420BD8E9
:104D80000AEB4301814207D305F11002A96F00200D
:104D9000A886107020E000BFA88EA96FE0B1B1F521
:104DA0007A7F88BF85F81890652903D3C72898BFF4
:104DB00085F8189069799F2803D8002918BF85F8CD
:104DC0001890AA7B72B10309182B98BF85F8189028
:104DD000E37873B91EE000BF85F818906529E5D225
:104DE000E8E700BF95288CBF0A2364236374E37847
:104DF00083B16426677C72432B7E01327A439A42E8
:104E000008D2FEF719FA00F0A3FB6620A5F83C9043
:104E100028767EE021B11D282AD8A5F83C903BE0F9
:104E2000E97A002974D02978002945D0D4E914738F
:104E30002F2140F2FF72009700F076FB48F20072DB
:104E4000E179C0F2933292FBF0F04908AA8E90FB10
:104E5000F1F02E2A288541D840F26400C2F2000009
:104E6000A5F83C90C0F80090C5F8609051E000BFF4
:104E70001E2801D11E200FE0217B01EB81018A0059
:104E8000824209D91E212F23A027009700F04CFB56
:104E90000146A88EA98700BF217B01EB8101890013
:104EA000814236D84FF4FA62A0234FF4FA67009794
:104EB00000F03AFB2CE000BF2F6E384601F0DCFD1D
:104EC0004EF20001461C3846C4F2FF4101F09EFC40
:104ED000002818BF40F2FF76AE8711E02F6E4EF229
:104EE00000013846C4F2FF4101F097FC0028384623
:104EF0001CBF4EF20000C4F2FF4001F0BDFDA887C8
:104F000000213846C4F2402101F087FC08B9302066
:104F1000A887A87EF0B1A88F3128C0F09380697F60
:104F2000002900F08F8088287FF656ADFEF7F2F852
:104F3000A88FC82840F2B8805020A5F84C90A4F85B
:104F40004A00FFF719F8B5F84C0000287FF470AD5F
:104F5000B3E000BF686F48F2A062C0F20102697E50
:104F600092FBF0F04CF6CD42484300EB400040008D
:104F700081B2CCF6CC42A1FB0212E17BA5F85C0029
:104F8000D008A5F85E0069B1B4F84210B4F8442026
:104F9000B4F84630B4F8487080B2009700F0C4FA14
:104FA000A4F8400095F82300617988420AD9B4F842
:104FB000483001F114025B08CDF8008000F0B4FA2B
:104FC000A4F84000A86FB4F84E1064284FF00C000D
:104FD0000DD3B1F5FA7F0AD8E86E64214FF4FA7266
:104FE00004230C27009700F09FFAB4F84E106429B0
:104FF00038BF0220E18BA0758908E0299CBF4000E2
:10500000A075A87D002800F01381687E002800F0BC
:105010000F8100F09DFA0020FCF768FA217E00293C
:1050200070D0002870D0287F0130C2B2032A2877C0
:1050300028BF85F8229095F82100002840F0F880DC
:105040006CE000BFE878F8B1E08F617AA28F00EBE6
:10505000410113398BB25A43B2FBF0F2A5F840106C
:10506000801A013042F61441A5F8520080B2C4F211
:10507000010108624862886200F05AFC85F81580D8
:1050800085F81990D4E400BF42F61440C4F2010040
:10509000C0F82090C0F82490C0F82890FEF7CCF813
:1050A00085F81990C4E400BFB4F84A00FEF764FF25
:1050B000B5F84C0000287FF4BBAC40F2085142F236
:1050C0002830C2F20001A5F8198085F81680A4F8EE
:1050D0004E00E8660860CBF8000028790A21002815
:1050E000607DA96785F8159020771CBF608F2087A9
:1050F000FEF746FB42F61440C4F20100A0F800801F
:1051000096E400BF00288ED095F82200013085F883
:10511000220095F82100002840F08A8095F82200AE
:10512000C1B3A17E884240F2838085F82180DBF8FC
:105130000010A5F84410CBF80090B4F84E2088B2C7
:1051400002EB420212FA81F1E27DC1F38F03B3FB5D
:10515000F2F28B08C2EBD101A5F8421089B2891A8C
:10516000A4F84E302A8700BFDBF80020121A8A42CA
:1051700046D2DBF80020121A8A4241D2DBF8002026
:10518000121A8A423CD2DBF80020121A8A42EBD370
:1051900036E000BFE17E88424AD985F82180DBF8FD
:1051A0000010A5F84410CBF80090B4F84E2088B257
:1051B00002EB420212FA81F1E27DC1F38F03B3FBED
:1051C000F2F28B08C2EBD101A5F8421089B2891A1C
:1051D000A4F84E302A8700BFDBF80020121A8A425A
:1051E0000ED2DBF80020121A8A4209D2DBF8002026
:1051F000121A8A4204D2DBF80020121A8A42EBD338
:10520000FEF7BEFAA86F2979AA7A0130114385F812
:10521000229085F81C90A86776D0142808D3B4F89B
:105220004E00B0F5FA6F03D885F81690FEF7B8FF78
:10523000DBF800004AF6C9718842FFF4F9AB687EDA
:1052400001287FF4F5AB287E0130287600F080F944
:10525000A88F85F816802F2898BF85F81990C5F873
:105260007890DBF80010A5F84410CBF80090B4F863
:105270004E2088B202EB420212FA81F1E27DC1F3C4
:105280008F03B3FBF2F28B08C2EBD101A5F84210F9
:1052900089B2891AA4F84E302A8700BFDBF80020B3
:1052A000121A8A420ED2DBF80020121A8A4209D260
:1052B000DBF80020121A8A4204D2DBF80020121A0E
:1052C0008A42EBD3FEF75CFAA86F2979AA7A0130FB
:1052D000114385F8229085F81C90A8670AD01428FD
:1052E000FFF4A6ABB4F84E00B0F5FA6F05D9FFF79E
:1052F0009FBB00BF1F28FFF49BAB85F81690FEF7FD
:105300004FFFFFF795BB00BF1F288DD290E700002D
:10531000F0B540F21845C2F20005A98811B100228B
:10532000AA805CE040F2A541C2F20001097869B1AF
:1053300040F20051C2F20001096847F6FF7221EA0B
:105340000202B2F5004F0BD1072244E040F20052B6
:10535000C2F200024FF6FF71116007223BE000BF6E
:1053600043F6FF7221EA0202B2F5804F02D1062213
:1053700031E000BF41F6FF7021EA0000B0F5005FA8
:1053800002D1052227E000BF40F6FF7021EA0000AD
:10539000B0F5805F02D104221DE000BF40F2FF7033
:1053A00021EA0000B0F5006F02D1032213E000BF34
:1053B00040F2FF3021EA0000B0F5806F02D10222F6
:1053C00009E000BF40F2FF1021EA0000A0F50070E4
:1053D000B0FA80F04209114141EA4221EA6081EAD3
:1053E000111282EA112247F20A2002F00F02C0F6DF
:1053F0000000C1F3031442EA011241F31323045DD8
:1054000082F00F02C65C01F00F01A30210F801C088
:1054100002F00F0143EAC637415C47EA4C1343EA06
:10542000010E2A61C5F814E0012540F20C706122DA
:1054300025EA1615C2F200005543C6F3C0064561C1
:1054400086EA95155543C7F34046856186EA95156A
:105450005543C7F30046C56186EA95155543C7F322
:10546000C036056286EA95155543C4F300164562B9
:1054700086EA95155543C4F3C00484EA9514856201
:105480005443C3F30035C46285EA94145443C3F310
:10549000C025046385EA94145443C3F3802383EA4C
:1054A000941344635343CCF30014836384EA93134B
:1054B0005343CCF3C007C36387EA93135343CEF33C
:1054C000C017036487EA93135343CEF380174364F2
:1054D00087EA93135343CEF34017836487EA931309
:1054E0005343C1F30017C36487EA93135343C1F3D3
:1054F000C007036587EA93135343C1F380074365ED
:1055000087EA93135343C1F34007836587EA9313F4
:10551000534301F0010181EA9311514301660021D7
:105520000261C365C160F0BD80B5DDF808C0884286
:10553000B8BF08469042C8BF1046A0EB010EACEBC6
:1055400003000EFB00F0511A90FBF1F0184480BDEF
:1055500040F20040C4F20100016821F40021016022
:105560004FF4002141617047F0B581B042F6284404
:10557000C4F201044FF47A60606040F2545072B695
:10558000C2F2000000784CF6CD467925CCF6CC4628
:105590000A27E06020616061023DFDF725FAA5FB66
:1055A00006010809FDF72AFF07EB550020800A20B5
:1055B000FEF7F8FC022DEFD8FDF73EFE002040F28A
:1055C0003E022080C2F2000240F276711288C2F2DE
:1055D00000010880626062B601B0F0BD2DE9F04FB5
:1055E00081B00320FDF70AFF40F2767A40F25A6755
:1055F0000024C2F2000AC2F200074FF000080026A1
:1056000007E000BF013608F1340008F10208AE28B7
:1056100064D2FDF7E9F907EB080090F83490AAF896
:105620000040B9F1FF0FEDD090F83500002845D0CB
:105630004FF47A61F72210FB021049F28061C0F248
:105640009801B1FBF0FB1FFA8BF001F04FFA054611
:10565000F0B2C0EBC01009EB400001F02FFA064693
:105660000020C4F27A402946002401F0F7F83146C0
:1056700001F0B4FA01F000FA43F60061C0F249010A
:1056800042F62843B1FBFBF1C4F201030A221A805F
:1056900040F254525960C2F200021278514344F66B
:1056A000D352C1F26202A1FB0212110AD960196140
:1056B0005961FEF777FC0026A5E700BFF0B2C0EB0A
:1056C000C01042F6284109EB40000026C4F2010157
:1056D000CE600E614E61FEF765FC94E7FDF7ACFD10
:1056E00042F628420020C4F2010240F23E0110803E
:1056F000C2F2000109885160AAF8000001B0BDE8BB
:10570000F04FFDF771B9000010B542F62844C4F21D
:1057100001044FF47A6060602820208040F25450E9
:10572000C2F200000078E060206160610220FDF7B5
:1057300065FE9620FEF736FCFDF756F950202080D6
:105740009620FEF72FFCFDF777FD002040F23E0289
:105750002080C2F2000240F276711288C2F200018B
:105760000880626010BD000010B542F62844C4F203
:1057700001044FF47A6060603220208040F254507F
:10578000C2F200000078E060206160610220FDF755
:1057900035FE9620FEF706FCFDF726F91E20208038
:1057A0009620FEF7FFFBFDF747FD002040F23E028A
:1057B0002080C2F2000240F276711288C2F200012B
:1057C0000880626010BD000010B542F6284472B631
:1057D000C4F201044FF47A606060FDF705F95020CF
:1057E000208040F25450C2F200000078E060206156
:1057F00060610320FDF702FE6420FEF7D3FB462024
:1058000020806420FEF7CEFB282020806420FEF755
:10581000C9FBFDF711FD002040F23E022080C2F2DC
:10582000000240F276711288C2F2000108806260C4
:1058300062B610BD10B542F62844C4F201044FF41C
:105840007A60606072B6FDF7CFF83C20208040F2AD
:105850005450C2F200000078E060206160610120D5
:10586000FDF7CCFD4B20FEF79DFB502020804B2008
:10587000FEF798FB5A202080FDF7B6F84B20FEF784
:1058800091FBFDF7D9FC002040F23E022080C2F2DD
:10589000000240F276711288C2F200010880626054
:1058A00062B610BD10B547F6304072B6C0F60000C3
:1058B000007842F62844FF28C4F2010402D0FFF722
:1058C0008DFE2DE04FF47A60606040F25450C2F2D9
:1058D00000000078E060206160610320FDF78EFD2C
:1058E000FDF782F837202080C820FEF75BFB0520FB
:1058F000FDF784FD28202080C820FEF753FB0620FA
:10590000FDF77CFD19202080C820FEF74BFBFDF73A
:1059100093FC40F276710020C2F2000120800880E2
:1059200040F23E00C2F200000088606062B610BD26
:10593000B0B540F60004C4F2010420461021002254
:105940004FF480634FF48065FEF778FC2046102109
:1059500000224FF4007365614FF40075FEF76EFC92
:105960002046102100224FF4807365614FF480754A
:10597000FEF764FC656104F5806528461821002265
:105980000223FEF75BFC2846182100220123FEF7C4
:1059900055FC2046182100228023BDE8B040FEF7C8
:1059A0004DBC000070B5012A20DB531E032B02F012
:1059B000030C01D2002211E022F0030E431C00224E
:1059C0008D5C9E188C1806F8015C65789D54A5784E
:1059D00004327570E4789645B470F1D1BCF1000FD3
:1059E00004D0535CBCF1010F835401D170BD00BFE2
:1059F000531C5E5CBCF1020FC65408BF70BD02327E
:105A0000515C815470BD0000F0B581B040F200449B
:105A1000C4F2000404F5843004210022102300267F
:105A20001027FEF70BFC2046FDF776FA6C25666220
:105A3000C4F2020528680B21286040F61040C4F229
:105A40000100076001202083218440F25801C2F246
:105A500000010A7822854FF6FF72E262A08240F2CE
:105A60008040C2F20000067004F13400A86040F2E9
:105A70005850C2F20000E86048684FF40071686056
:105A800020460122FDF72CFA208840F001002080FA
:105A900040F68B10286001B0F0BD0000B0B540F2B8
:105AA0000001C2F2000140F25A600A78C2F200001E
:105AB000427040F28C42C2F20002547895785279DA
:105AC0004B78013AB2FA82F25209C2745A1E91F826
:105AD00002C0B2FA82F252090275ACF1010291F8E9
